{
    "_format": "hh-sol-artifact-1",
    "contractName": "crowdfunding",
    "sourceName": "contracts/crowdfunding.sol",
    "abi": [
        {
            "anonymous": false,
            "inputs": [
                {
                    "indexed": false,
                    "internalType": "address",
                    "name": "contractAddress",
                    "type": "address"
                },
                {
                    "indexed": false,
                    "internalType": "address",
                    "name": "projectStarter",
                    "type": "address"
                },
                {
                    "indexed": false,
                    "internalType": "string",
                    "name": "projectTitle",
                    "type": "string"
                },
                {
                    "indexed": false,
                    "internalType": "string",
                    "name": "projectDesc",
                    "type": "string"
                },
                {
                    "indexed": false,
                    "internalType": "uint256",
                    "name": "deadline",
                    "type": "uint256"
                },
                {
                    "indexed": false,
                    "internalType": "uint256",
                    "name": "goalAmount",
                    "type": "uint256"
                }
            ],
            "name": "ProjectStarted",
            "type": "event"
        },
        {
            "inputs": [],
            "name": "returnAllProjects",
            "outputs": [
                {
                    "internalType": "contract Project[]",
                    "name": "",
                    "type": "address[]"
                }
            ],
            "stateMutability": "view",
            "type": "function"
        },
        {
            "inputs": [],
            "name": "returnParticularProjects",
            "outputs": [
                {
                    "internalType": "contract Project[]",
                    "name": "",
                    "type": "address[]"
                }
            ],
            "stateMutability": "view",
            "type": "function"
        },
        {
            "inputs": [
                {
                    "internalType": "uint256",
                    "name": "_projectID",
                    "type": "uint256"
                }
            ],
            "name": "returnSpecificProject",
            "outputs": [
                {
                    "internalType": "contract Project",
                    "name": "",
                    "type": "address"
                }
            ],
            "stateMutability": "view",
            "type": "function"
        },
        {
            "inputs": [
                {
                    "internalType": "string",
                    "name": "title",
                    "type": "string"
                },
                {
                    "internalType": "string",
                    "name": "description",
                    "type": "string"
                },
                {
                    "internalType": "uint256",
                    "name": "durationInDays",
                    "type": "uint256"
                },
                {
                    "internalType": "uint256",
                    "name": "amountToRaise",
                    "type": "uint256"
                },
                {
                    "internalType": "string",
                    "name": "location",
                    "type": "string"
                },
                {
                    "internalType": "string",
                    "name": "category",
                    "type": "string"
                }
            ],
            "name": "startProject",
            "outputs": [],
            "stateMutability": "nonpayable",
            "type": "function"
        }
    ],
    "bytecode": "0x608060405234801561001057600080fd5b50616b61806100206000396000f3fe60806040523480156200001157600080fd5b5060043610620000525760003560e01c806385b6e28e1462000057578063915ffdee1462000079578063b057db46146200009b578063b9536b3614620000bb575b600080fd5b62000061620000f1565b60405162000070919062000823565b60405180910390f35b6200008362000181565b60405162000092919062000823565b60405180910390f35b620000b96004803603810190620000b3919062000568565b6200024e565b005b620000d96004803603810190620000d3919062000662565b62000433565b604051620000e8919062000847565b60405180910390f35b606060008054806020026020016040519081016040528092919081815260200182805480156200017757602002820191906000526020600020905b8160009054906101000a900473ffffffffffffffffffffffffffffffffffffffff1673ffffffffffffffffffffffffffffffffffffffff16815260200190600101908083116200012c575b5050505050905090565b6060600260003373ffffffffffffffffffffffffffffffffffffffff1673ffffffffffffffffffffffffffffffffffffffff1681526020019081526020016000208054806020026020016040519081016040528092919081815260200182805480156200024457602002820191906000526020600020905b8160009054906101000a900473ffffffffffffffffffffffffffffffffffffffff1673ffffffffffffffffffffffffffffffffffffffff1681526020019060010190808311620001f9575b5050505050905090565b60006200027a6200026a603c87620004a190919063ffffffff16565b42620004b990919063ffffffff16565b90506000600154338989858989896040516200029690620004d1565b620002a998979695949392919062000864565b604051809103906000f080158015620002c6573d6000803e3d6000fd5b5090506000819080600181540180825580915050600190039060005260206000200160009091909190916101000a81548173ffffffffffffffffffffffffffffffffffffffff021916908373ffffffffffffffffffffffffffffffffffffffff16021790555060016000815480929190620003419062000b75565b91905055507f6218c120ad6d836da0bfe4d4c44c8375356514fce6ae39ecdcd483fad6056e6681338a8a868a6040516200038196959493929190620007a8565b60405180910390a1600260003373ffffffffffffffffffffffffffffffffffffffff1673ffffffffffffffffffffffffffffffffffffffff168152602001908152602001600020819080600181540180825580915050600190039060005260206000200160009091909190916101000a81548173ffffffffffffffffffffffffffffffffffffffff021916908373ffffffffffffffffffffffffffffffffffffffff1602179055505050505050505050565b60008082815481106200046f577f4e487b7100000000000000000000000000000000000000000000000000000000600052603260045260246000fd5b9060005260206000200160009054906101000a900473ffffffffffffffffffffffffffffffffffffffff169050919050565b60008183620004b1919062000a1f565b905092915050565b60008183620004c99190620009c2565b905092915050565b615edf8062000c4d83390190565b6000620004f6620004f08462000937565b6200090e565b9050828152602081018484840111156200050f57600080fd5b6200051c84828562000afa565b509392505050565b600082601f8301126200053657600080fd5b813562000548848260208601620004df565b91505092915050565b600081359050620005628162000c32565b92915050565b60008060008060008060c087890312156200058257600080fd5b600087013567ffffffffffffffff8111156200059d57600080fd5b620005ab89828a0162000524565b965050602087013567ffffffffffffffff811115620005c957600080fd5b620005d789828a0162000524565b9550506040620005ea89828a0162000551565b9450506060620005fd89828a0162000551565b935050608087013567ffffffffffffffff8111156200061b57600080fd5b6200062989828a0162000524565b92505060a087013567ffffffffffffffff8111156200064757600080fd5b6200065589828a0162000524565b9150509295509295509295565b6000602082840312156200067557600080fd5b6000620006858482850162000551565b91505092915050565b60006200069c838362000734565b60208301905092915050565b620006b38162000a94565b82525050565b620006c48162000a80565b82525050565b6000620006d7826200097d565b620006e38185620009a0565b9350620006f0836200096d565b8060005b83811015620007275781516200070b88826200068e565b9750620007188362000993565b925050600181019050620006f4565b5085935050505092915050565b6200073f8162000ad2565b82525050565b620007508162000ad2565b82525050565b6000620007638262000988565b6200076f8185620009b1565b93506200078181856020860162000b09565b6200078c8162000c21565b840191505092915050565b620007a28162000ac8565b82525050565b600060c082019050620007bf6000830189620006b9565b620007ce6020830188620006b9565b8181036040830152620007e2818762000756565b90508181036060830152620007f8818662000756565b905062000809608083018562000797565b6200081860a083018462000797565b979650505050505050565b600060208201905081810360008301526200083f8184620006ca565b905092915050565b60006020820190506200085e600083018462000745565b92915050565b6000610100820190506200087c600083018b62000797565b6200088b602083018a620006a8565b81810360408301526200089f818962000756565b90508181036060830152620008b5818862000756565b9050620008c6608083018762000797565b620008d560a083018662000797565b81810360c0830152620008e9818562000756565b905081810360e0830152620008ff818462000756565b90509998505050505050505050565b60006200091a6200092d565b905062000928828262000b3f565b919050565b6000604051905090565b600067ffffffffffffffff82111562000955576200095462000bf2565b5b620009608262000c21565b9050602081019050919050565b6000819050602082019050919050565b600081519050919050565b600081519050919050565b6000602082019050919050565b600082825260208201905092915050565b600082825260208201905092915050565b6000620009cf8262000ac8565b9150620009dc8362000ac8565b9250827fffffffffffffffffffffffffffffffffffffffffffffffffffffffffffffffff0382111562000a145762000a1362000bc3565b5b828201905092915050565b600062000a2c8262000ac8565b915062000a398362000ac8565b9250817fffffffffffffffffffffffffffffffffffffffffffffffffffffffffffffffff048311821515161562000a755762000a7462000bc3565b5b828202905092915050565b600062000a8d8262000aa8565b9050919050565b600062000aa18262000aa8565b9050919050565b600073ffffffffffffffffffffffffffffffffffffffff82169050919050565b6000819050919050565b600062000adf8262000ae6565b9050919050565b600062000af38262000aa8565b9050919050565b82818337600083830152505050565b60005b8381101562000b2957808201518184015260208101905062000b0c565b8381111562000b39576000848401525b50505050565b62000b4a8262000c21565b810181811067ffffffffffffffff8211171562000b6c5762000b6b62000bf2565b5b80604052505050565b600062000b828262000ac8565b91507fffffffffffffffffffffffffffffffffffffffffffffffffffffffffffffffff82141562000bb85762000bb762000bc3565b5b600182019050919050565b7f4e487b7100000000000000000000000000000000000000000000000000000000600052601160045260246000fd5b7f4e487b7100000000000000000000000000000000000000000000000000000000600052604160045260246000fd5b6000601f19601f8301169050919050565b62000c3d8162000ac8565b811462000c4957600080fd5b5056fe60806040526000600a60006101000a81548160ff0219169083600281111562000051577f4e487b7100000000000000000000000000000000000000000000000000000000600052602160045260246000fd5b02179055503480156200006357600080fd5b5060405162005edf38038062005edf8339818101604052810190620000899190620002b1565b8760008190555086600160006101000a81548173ffffffffffffffffffffffffffffffffffffffff021916908373ffffffffffffffffffffffffffffffffffffffff1602179055508560069080519060200190620000e992919062000161565b5084600990805190602001906200010292919062000161565b5082600281905550836005819055506000600c81905550600060048190555081600790805190602001906200013992919062000161565b5080600890805190602001906200015292919062000161565b505050505050505050620005ba565b8280546200016f90620004ab565b90600052602060002090601f016020900481019282620001935760008555620001df565b82601f10620001ae57805160ff1916838001178555620001df565b82800160010185558215620001df579182015b82811115620001de578251825591602001919060010190620001c1565b5b509050620001ee9190620001f2565b5090565b5b808211156200020d576000816000905550600101620001f3565b5090565b600062000228620002228462000401565b620003d8565b9050828152602081018484840111156200024157600080fd5b6200024e84828562000475565b509392505050565b600081519050620002678162000586565b92915050565b600082601f8301126200027f57600080fd5b81516200029184826020860162000211565b91505092915050565b600081519050620002ab81620005a0565b92915050565b600080600080600080600080610100898b031215620002cf57600080fd5b6000620002df8b828c016200029a565b9850506020620002f28b828c0162000256565b975050604089015167ffffffffffffffff8111156200031057600080fd5b6200031e8b828c016200026d565b965050606089015167ffffffffffffffff8111156200033c57600080fd5b6200034a8b828c016200026d565b95505060806200035d8b828c016200029a565b94505060a0620003708b828c016200029a565b93505060c089015167ffffffffffffffff8111156200038e57600080fd5b6200039c8b828c016200026d565b92505060e089015167ffffffffffffffff811115620003ba57600080fd5b620003c88b828c016200026d565b9150509295985092959890939650565b6000620003e4620003f7565b9050620003f28282620004e1565b919050565b6000604051905090565b600067ffffffffffffffff8211156200041f576200041e62000546565b5b6200042a8262000575565b9050602081019050919050565b600062000444826200044b565b9050919050565b600073ffffffffffffffffffffffffffffffffffffffff82169050919050565b6000819050919050565b60005b838110156200049557808201518184015260208101905062000478565b83811115620004a5576000848401525b50505050565b60006002820490506001821680620004c457607f821691505b60208210811415620004db57620004da62000517565b5b50919050565b620004ec8262000575565b810181811067ffffffffffffffff821117156200050e576200050d62000546565b5b80604052505050565b7f4e487b7100000000000000000000000000000000000000000000000000000000600052602260045260246000fd5b7f4e487b7100000000000000000000000000000000000000000000000000000000600052604160045260246000fd5b6000601f19601f8301169050919050565b620005918162000437565b81146200059d57600080fd5b50565b620005ab816200046b565b8114620005b757600080fd5b50565b61591580620005ca6000396000f3fe608060405260043610620001885760003560e01c806381d12c5811620000e5578063b2d5ae441162000097578063ce845d1d116200006d578063ce845d1d14620005e4578063d7bb99ba1462000614578063ef430aa61462000636578063fbbf93a014620006665762000188565b8063b2d5ae441462000540578063bc3b3fcb1462000570578063c19d93fb14620005b45762000188565b806381d12c5814620003f657806386f32586146200043e5780638a9cfd551462000458578063937e09b1146200049c57806398b34a2514620004cc5780639fb42b1f14620005105762000188565b80634c4cea5a116200013f5780634c4cea5a14620002c15780634cb6f4a514620002f15780634e260f6f1462000336578063516f279e14620003665780636f9fb98a14620003965780637284e41614620003c65762000188565b806302d05d3f146200018d5780630785001c14620001bd57806329dcb0cf14620001ed5780633fafa127146200021d57806342e94c90146200024d5780634a79d50c1462000291575b600080fd5b3480156200019a57600080fd5b50620001a56200069e565b604051620001b4919062001d9c565b60405180910390f35b348015620001ca57600080fd5b50620001d5620006c4565b604051620001e491906200206c565b60405180910390f35b348015620001fa57600080fd5b5062000205620006ca565b6040516200021491906200206c565b60405180910390f35b3480156200022a57600080fd5b5062000235620006d0565b6040516200024491906200206c565b60405180910390f35b3480156200025a57600080fd5b5062000279600480360381019062000273919062001ad1565b620006d6565b6040516200028891906200206c565b60405180910390f35b3480156200029e57600080fd5b50620002a9620006ee565b604051620002b8919062001f18565b60405180910390f35b348015620002ce57600080fd5b50620002d962000784565b604051620002e891906200206c565b60405180910390f35b348015620002fe57600080fd5b506200031d600480360381019062000317919062001bc2565b6200078a565b6040516200032d92919062001ece565b60405180910390f35b3480156200034357600080fd5b506200034e620009ed565b6040516200035d91906200206c565b60405180910390f35b3480156200037357600080fd5b506200037e620009f3565b6040516200038d919062001f18565b60405180910390f35b348015620003a357600080fd5b50620003ae62000a89565b604051620003bd91906200206c565b60405180910390f35b348015620003d357600080fd5b50620003de62000a91565b604051620003ed919062001f18565b60405180910390f35b3480156200040357600080fd5b506200042260048036038101906200041c919062001bc2565b62000b27565b6040516200043595949392919062001f3c565b60405180910390f35b3480156200044b57600080fd5b506200045662000c1a565b005b3480156200046557600080fd5b506200048460048036038101906200047e919062001b53565b62000ce6565b60405162000493919062001eb1565b60405180910390f35b348015620004a957600080fd5b50620004b462000ee9565b604051620004c391906200206c565b60405180910390f35b348015620004d957600080fd5b50620004f86004803603810190620004f2919062001bc2565b62000eef565b6040516200050791906200206c565b60405180910390f35b3480156200051d57600080fd5b506200052862000f14565b6040516200053791906200206c565b60405180910390f35b3480156200054d57600080fd5b506200055862000f1a565b60405162000567919062001eb1565b60405180910390f35b3480156200057d57600080fd5b506200059c600480360381019062000596919062001afd565b62001139565b604051620005ab919062001eb1565b60405180910390f35b348015620005c157600080fd5b50620005cc620012ed565b604051620005db919062001efb565b60405180910390f35b348015620005f157600080fd5b50620005fc62001300565b6040516200060b91906200206c565b60405180910390f35b6200061e62001306565b6040516200062d919062001eb1565b60405180910390f35b3480156200064357600080fd5b506200064e620015cb565b6040516200065d919062001f18565b60405180910390f35b3480156200067357600080fd5b506200067e62001661565b604051620006959998979695949392919062001db9565b60405180910390f35b600160009054906101000a900473ffffffffffffffffffffffffffffffffffffffff1681565b60025481565b60055481565b60005481565b600b6020528060005260406000206000915090505481565b60068054620006fd90620022dc565b80601f01602080910402602001604051908101604052809291908181526020018280546200072b90620022dc565b80156200077c5780601f1062000750576101008083540402835291602001916200077c565b820191906000526020600020905b8154815290600101906020018083116200075e57829003601f168201915b505050505081565b60035481565b6000806000600b60003373ffffffffffffffffffffffffffffffffffffffff1673ffffffffffffffffffffffffffffffffffffffff168152602001908152602001600020541162000812576040517f08c379a0000000000000000000000000000000000000000000000000000000008152600401620008099062002006565b60405180910390fd5b6000600e60008581526020019081526020016000209050620008416002600d546200191490919063ffffffff16565b8160030154106200085157600080fd5b600015158160040160003373ffffffffffffffffffffffffffffffffffffffff1673ffffffffffffffffffffffffffffffffffffffff16815260200190815260200160002060009054906101000a900460ff16151514620008e9576040517f08c379a0000000000000000000000000000000000000000000000000000000008152600401620008e09062001fc2565b60405180910390fd5b806003016000815480929190620009009062002348565b919050555060018160040160003373ffffffffffffffffffffffffffffffffffffffff1673ffffffffffffffffffffffffffffffffffffffff16815260200190815260200160002060006101000a81548160ff021916908315150217905550620009776002600d546200191490919063ffffffff16565b816003015410620009db5760018160020160146101000a81548160ff021916908315150217905550620009d48160020160009054906101000a900473ffffffffffffffffffffffffffffffffffffffff1682600101548662001139565b50620009dc565b5b600081600301549250925050915091565b600d5481565b6007805462000a0290620022dc565b80601f016020809104026020016040519081016040528092919081815260200182805462000a3090620022dc565b801562000a815780601f1062000a555761010080835404028352916020019162000a81565b820191906000526020600020905b81548152906001019060200180831162000a6357829003601f168201915b505050505081565b600047905090565b6009805462000aa090620022dc565b80601f016020809104026020016040519081016040528092919081815260200182805462000ace90620022dc565b801562000b1f5780601f1062000af35761010080835404028352916020019162000b1f565b820191906000526020600020905b81548152906001019060200180831162000b0157829003601f168201915b505050505081565b600e60205280600052604060002060009150905080600001805462000b4c90620022dc565b80601f016020809104026020016040519081016040528092919081815260200182805462000b7a90620022dc565b801562000bcb5780601f1062000b9f5761010080835404028352916020019162000bcb565b820191906000526020600020905b81548152906001019060200180831162000bad57829003601f168201915b5050505050908060010154908060020160009054906101000a900473ffffffffffffffffffffffffffffffffffffffff16908060020160149054906101000a900460ff16908060030154905085565b6002546004541062000c7e576002600a60006101000a81548160ff0219169083600281111562000c73577f4e487b7100000000000000000000000000000000000000000000000000000000600052602160045260246000fd5b021790555062000cdd565b60055442111562000cdc576001600a60006101000a81548160ff0219169083600281111562000cd6577f4e487b7100000000000000000000000000000000000000000000000000000000600052602160045260246000fd5b02179055505b5b42600381905550565b6000600280600281111562000d24577f4e487b7100000000000000000000000000000000000000000000000000000000600052602160045260246000fd5b600a60009054906101000a900460ff16600281111562000d6d577f4e487b7100000000000000000000000000000000000000000000000000000000600052602160045260246000fd5b1462000d7857600080fd5b600160009054906101000a900473ffffffffffffffffffffffffffffffffffffffff1673ffffffffffffffffffffffffffffffffffffffff163373ffffffffffffffffffffffffffffffffffffffff161462000e0b576040517f08c379a000000000000000000000000000000000000000000000000000000000815260040162000e02906200204a565b60405180910390fd5b60045484111562000e1b57600080fd5b6000600e6000600f5481526020019081526020016000209050600f600081548092919062000e499062002348565b91905055508581600001908051906020019062000e689291906200195c565b50848160010181905550838160020160006101000a81548173ffffffffffffffffffffffffffffffffffffffff021916908373ffffffffffffffffffffffffffffffffffffffff16021790555060008160020160146101000a81548160ff021916908315150217905550600081600301819055506001925050509392505050565b600c5481565b600080600e600084815260200190815260200160002090508060030154915050919050565b600f5481565b6000600180600281111562000f58577f4e487b7100000000000000000000000000000000000000000000000000000000600052602160045260246000fd5b600a60009054906101000a900460ff16600281111562000fa1577f4e487b7100000000000000000000000000000000000000000000000000000000600052602160045260246000fd5b1462000fac57600080fd5b6000600b60003373ffffffffffffffffffffffffffffffffffffffff1673ffffffffffffffffffffffffffffffffffffffff168152602001908152602001600020541162000ff957600080fd5b6000600b60003373ffffffffffffffffffffffffffffffffffffffff1673ffffffffffffffffffffffffffffffffffffffff1681526020019081526020016000205490506000600b60003373ffffffffffffffffffffffffffffffffffffffff1673ffffffffffffffffffffffffffffffffffffffff1681526020019081526020016000208190555060003390508073ffffffffffffffffffffffffffffffffffffffff166108fc839081150290604051600060405180830381858888f19350505050620011115781600b60003373ffffffffffffffffffffffffffffffffffffffff1673ffffffffffffffffffffffffffffffffffffffff1681526020019081526020016000208190555060009350505062001135565b62001128826004546200192c90919063ffffffff16565b6004819055506001935050505b5090565b6000600280600281111562001177577f4e487b7100000000000000000000000000000000000000000000000000000000600052602160045260246000fd5b600a60009054906101000a900460ff166002811115620011c0577f4e487b7100000000000000000000000000000000000000000000000000000000600052602160045260246000fd5b14620011cb57600080fd5b6000600e60008581526020019081526020016000209050620011fa6002600d546200191490919063ffffffff16565b8160030154101562001243576040517f08c379a00000000000000000000000000000000000000000000000000000000081526004016200123a9062001fe4565b60405180910390fd5b8573ffffffffffffffffffffffffffffffffffffffff166108fc869081150290604051600060405180830381858888f1935050505015620012df577f2f256415efc8561af8db667cb242964b19be7380f379ccdafaa0e54a6f6b706986604051620012af919062001d7f565b60405180910390a1620012ce856004546200192c90919063ffffffff16565b6004819055506001925050620012e5565b60009250505b509392505050565b600a60009054906101000a900460ff1681565b60045481565b60008080600281111562001343577f4e487b7100000000000000000000000000000000000000000000000000000000600052602160045260246000fd5b600a60009054906101000a900460ff1660028111156200138c577f4e487b7100000000000000000000000000000000000000000000000000000000600052602160045260246000fd5b146200139757600080fd5b600160009054906101000a900473ffffffffffffffffffffffffffffffffffffffff1673ffffffffffffffffffffffffffffffffffffffff163373ffffffffffffffffffffffffffffffffffffffff1614156200142b576040517f08c379a0000000000000000000000000000000000000000000000000000000008152600401620014229062002028565b60405180910390fd5b600c54341162001472576040517f08c379a0000000000000000000000000000000000000000000000000000000008152600401620014699062001fa0565b60405180910390fd5b620014c634600b60003373ffffffffffffffffffffffffffffffffffffffff1673ffffffffffffffffffffffffffffffffffffffff168152602001908152602001600020546200194490919063ffffffff16565b600b60003373ffffffffffffffffffffffffffffffffffffffff1673ffffffffffffffffffffffffffffffffffffffff1681526020019081526020016000208190555062001520346004546200194490919063ffffffff16565b600481905550600d60008154809291906200153b9062002348565b91905055507f5cdc4ab8d637538ead6cc1904d4160343656c8c82bd266635cfd31ac008fffe03334600454604051620015779392919062001e74565b60405180910390a16200158962000c1a565b336040516200159890620019ed565b620015a4919062001d9c565b604051809103906000f080158015620015c1573d6000803e3d6000fd5b5050600191505090565b60088054620015da90620022dc565b80601f01602080910402602001604051908101604052809291908181526020018280546200160890620022dc565b8015620016595780601f106200162d5761010080835404028352916020019162001659565b820191906000526020600020905b8154815290600101906020018083116200163b57829003601f168201915b505050505081565b6000606080600080600080606080600160009054906101000a900473ffffffffffffffffffffffffffffffffffffffff16985060068054620016a390620022dc565b80601f0160208091040260200160405190810160405280929190818152602001828054620016d190620022dc565b8015620017225780601f10620016f65761010080835404028352916020019162001722565b820191906000526020600020905b8154815290600101906020018083116200170457829003601f168201915b50505050509750600980546200173890620022dc565b80601f01602080910402602001604051908101604052809291908181526020018280546200176690620022dc565b8015620017b75780601f106200178b57610100808354040283529160200191620017b7565b820191906000526020600020905b8154815290600101906020018083116200179957829003601f168201915b505050505096506005549550600a60009054906101000a900460ff1694506004549350600254925060078054620017ee90620022dc565b80601f01602080910402602001604051908101604052809291908181526020018280546200181c90620022dc565b80156200186d5780601f1062001841576101008083540402835291602001916200186d565b820191906000526020600020905b8154815290600101906020018083116200184f57829003601f168201915b50505050509150600880546200188390620022dc565b80601f0160208091040260200160405190810160405280929190818152602001828054620018b190620022dc565b8015620019025780601f10620018d65761010080835404028352916020019162001902565b820191906000526020600020905b815481529060010190602001808311620018e457829003601f168201915b50505050509050909192939495969798565b6000818362001924919062002161565b905092915050565b600081836200193c919062002199565b905092915050565b6000818362001954919062002104565b905092915050565b8280546200196a90620022dc565b90600052602060002090601f0160209004810192826200198e5760008555620019da565b82601f10620019a957805160ff1916838001178555620019da565b82800160010185558215620019da579182015b82811115620019d9578251825591602001919060010190620019bc565b5b509050620019e99190620019fb565b5090565b6132a6806200263a83390190565b5b8082111562001a16576000816000905550600101620019fc565b5090565b600062001a3162001a2b84620020b2565b62002089565b90508281526020810184848401111562001a4a57600080fd5b62001a5784828562002297565b509392505050565b60008135905062001a7081620025eb565b92915050565b60008135905062001a878162002605565b92915050565b600082601f83011262001a9f57600080fd5b813562001ab184826020860162001a1a565b91505092915050565b60008135905062001acb816200261f565b92915050565b60006020828403121562001ae457600080fd5b600062001af48482850162001a5f565b91505092915050565b60008060006060848603121562001b1357600080fd5b600062001b238682870162001a76565b935050602062001b368682870162001aba565b925050604062001b498682870162001aba565b9150509250925092565b60008060006060848603121562001b6957600080fd5b600084013567ffffffffffffffff81111562001b8457600080fd5b62001b928682870162001a8d565b935050602062001ba58682870162001aba565b925050604062001bb88682870162001a76565b9150509250925092565b60006020828403121562001bd557600080fd5b600062001be58482850162001aba565b91505092915050565b62001bf98162002247565b82525050565b62001c0a81620021e8565b82525050565b62001c1b81620021d4565b82525050565b62001c2c81620021fc565b82525050565b62001c3d816200225b565b82525050565b600062001c5082620020e8565b62001c5c8185620020f3565b935062001c6e818560208601620022a6565b62001c798162002481565b840191505092915050565b600062001c93602783620020f3565b915062001ca08262002492565b604082019050919050565b600062001cba601683620020f3565b915062001cc782620024e1565b602082019050919050565b600062001ce1601c83620020f3565b915062001cee826200250a565b602082019050919050565b600062001d08602183620020f3565b915062001d158262002533565b604082019050919050565b600062001d2f602083620020f3565b915062001d3c8262002582565b602082019050919050565b600062001d56601f83620020f3565b915062001d6382620025ab565b602082019050919050565b62001d79816200223d565b82525050565b600060208201905062001d96600083018462001bee565b92915050565b600060208201905062001db3600083018462001bff565b92915050565b60006101208201905062001dd1600083018c62001bff565b818103602083015262001de5818b62001c43565b9050818103604083015262001dfb818a62001c43565b905062001e0c606083018962001d6e565b62001e1b608083018862001c32565b62001e2a60a083018762001d6e565b62001e3960c083018662001d6e565b81810360e083015262001e4d818562001c43565b905081810361010083015262001e64818462001c43565b90509a9950505050505050505050565b600060608201905062001e8b600083018662001c10565b62001e9a602083018562001d6e565b62001ea9604083018462001d6e565b949350505050565b600060208201905062001ec8600083018462001c21565b92915050565b600060408201905062001ee5600083018562001c21565b62001ef4602083018462001d6e565b9392505050565b600060208201905062001f12600083018462001c32565b92915050565b6000602082019050818103600083015262001f34818462001c43565b905092915050565b600060a082019050818103600083015262001f58818862001c43565b905062001f69602083018762001d6e565b62001f78604083018662001bff565b62001f87606083018562001c21565b62001f96608083018462001d6e565b9695505050505050565b6000602082019050818103600083015262001fbb8162001c84565b9050919050565b6000602082019050818103600083015262001fdd8162001cab565b9050919050565b6000602082019050818103600083015262001fff8162001cd2565b9050919050565b60006020820190508181036000830152620020218162001cf9565b9050919050565b60006020820190508181036000830152620020438162001d20565b9050919050565b60006020820190508181036000830152620020658162001d47565b9050919050565b600060208201905062002083600083018462001d6e565b92915050565b600062002095620020a8565b9050620020a3828262002312565b919050565b6000604051905090565b600067ffffffffffffffff821115620020d057620020cf62002452565b5b620020db8262002481565b9050602081019050919050565b600081519050919050565b600082825260208201905092915050565b600062002111826200223d565b91506200211e836200223d565b9250827fffffffffffffffffffffffffffffffffffffffffffffffffffffffffffffffff0382111562002156576200215562002396565b5b828201905092915050565b60006200216e826200223d565b91506200217b836200223d565b9250826200218e576200218d620023c5565b5b828204905092915050565b6000620021a6826200223d565b9150620021b3836200223d565b925082821015620021c957620021c862002396565b5b828203905092915050565b6000620021e1826200221d565b9050919050565b6000620021f5826200221d565b9050919050565b60008115159050919050565b60008190506200221882620025d4565b919050565b600073ffffffffffffffffffffffffffffffffffffffff82169050919050565b6000819050919050565b600062002254826200226f565b9050919050565b6000620022688262002208565b9050919050565b60006200227c8262002283565b9050919050565b600062002290826200221d565b9050919050565b82818337600083830152505050565b60005b83811015620022c6578082015181840152602081019050620022a9565b83811115620022d6576000848401525b50505050565b60006002820490506001821680620022f557607f821691505b602082108114156200230c576200230b62002423565b5b50919050565b6200231d8262002481565b810181811067ffffffffffffffff821117156200233f576200233e62002452565b5b80604052505050565b600062002355826200223d565b91507fffffffffffffffffffffffffffffffffffffffffffffffffffffffffffffffff8214156200238b576200238a62002396565b5b600182019050919050565b7f4e487b7100000000000000000000000000000000000000000000000000000000600052601160045260246000fd5b7f4e487b7100000000000000000000000000000000000000000000000000000000600052601260045260246000fd5b7f4e487b7100000000000000000000000000000000000000000000000000000000600052602160045260246000fd5b7f4e487b7100000000000000000000000000000000000000000000000000000000600052602260045260246000fd5b7f4e487b7100000000000000000000000000000000000000000000000000000000600052604160045260246000fd5b6000601f19601f8301169050919050565b7f4d696e696d756d20436f6e747269627574696f6e2073686f756c64206265203160008201527f3030302077656900000000000000000000000000000000000000000000000000602082015250565b7f796f75206861766520616c726561647920766f74656400000000000000000000600082015250565b7f636f6e646974696f6e206e6f742066756c6c66696c6c65642079657400000000600082015250565b7f796f75206d757374206265206120636f6e7472696275746f7220746f20766f7460008201527f6500000000000000000000000000000000000000000000000000000000000000602082015250565b7f50726f6a6563742063726561746f722063616e277420636f6e74726962757465600082015250565b7f6f6e6c79206d616e616765722063616e20637265617465205265717565737400600082015250565b60038110620025e857620025e7620023f4565b5b50565b620025f681620021d4565b81146200260257600080fd5b50565b6200261081620021e8565b81146200261c57600080fd5b50565b6200262a816200223d565b81146200263657600080fd5b5056fe60806040523480156200001157600080fd5b50604051620032a6380380620032a68339818101604052810190620000379190620007ad565b6040518060400160405280600481526020017f4b495241000000000000000000000000000000000000000000000000000000008152506040518060400160405280600481526020017f4b495241000000000000000000000000000000000000000000000000000000008152508160009080519060200190620000bb929190620006cf565b508060019080519060200190620000d4929190620006cf565b5050506000620000f060076200016a60201b62000aa71760201c565b90506200010482826200017860201b60201c565b6200014b816040518060400160405280601d81526020017f68747470733a2f2f6a736f6e6b65657065722e636f6d2f622f344553380000008152506200019e60201b60201c565b6200016260076200021f60201b62000ab51760201c565b505062000ce7565b600081600001549050919050565b6200019a8282604051806020016040528060008152506200023560201b60201c565b5050565b620001af82620002a360201b60201c565b620001f1576040517f08c379a0000000000000000000000000000000000000000000000000000000008152600401620001e8906200099c565b60405180910390fd5b806006600084815260200190815260200160002090805190602001906200021a929190620006cf565b505050565b6001816000016000828254019250508190555050565b6200024783836200030f60201b60201c565b6200025c6000848484620004f560201b60201c565b6200029e576040517f08c379a0000000000000000000000000000000000000000000000000000000008152600401620002959062000958565b60405180910390fd5b505050565b60008073ffffffffffffffffffffffffffffffffffffffff166002600084815260200190815260200160002060009054906101000a900473ffffffffffffffffffffffffffffffffffffffff1673ffffffffffffffffffffffffffffffffffffffff1614159050919050565b600073ffffffffffffffffffffffffffffffffffffffff168273ffffffffffffffffffffffffffffffffffffffff16141562000382576040517f08c379a00000000000000000000000000000000000000000000000000000000081526004016200037990620009be565b60405180910390fd5b6200039381620002a360201b60201c565b15620003d6576040517f08c379a0000000000000000000000000000000000000000000000000000000008152600401620003cd906200097a565b60405180910390fd5b620003ea60008383620006af60201b60201c565b6001600360008473ffffffffffffffffffffffffffffffffffffffff1673ffffffffffffffffffffffffffffffffffffffff16815260200190815260200160002060008282546200043c919062000a0d565b92505081905550816002600083815260200190815260200160002060006101000a81548173ffffffffffffffffffffffffffffffffffffffff021916908373ffffffffffffffffffffffffffffffffffffffff160217905550808273ffffffffffffffffffffffffffffffffffffffff16600073ffffffffffffffffffffffffffffffffffffffff167fddf252ad1be2c89b69c2b068fc378daa952ba7f163c4a11628f55a4df523b3ef60405160405180910390a45050565b6000620005238473ffffffffffffffffffffffffffffffffffffffff16620006b460201b62000acb1760201c565b15620006a2578373ffffffffffffffffffffffffffffffffffffffff1663150b7a0262000555620006c760201b60201c565b8786866040518563ffffffff1660e01b815260040162000579949392919062000904565b602060405180830381600087803b1580156200059457600080fd5b505af1925050508015620005c857506040513d601f19601f82011682018060405250810190620005c59190620007d9565b60015b62000651573d8060008114620005fb576040519150601f19603f3d011682016040523d82523d6000602084013e62000600565b606091505b5060008151141562000649576040517f08c379a0000000000000000000000000000000000000000000000000000000008152600401620006409062000958565b60405180910390fd5b805181602001fd5b63150b7a0260e01b7bffffffffffffffffffffffffffffffffffffffffffffffffffffffff1916817bffffffffffffffffffffffffffffffffffffffffffffffffffffffff191614915050620006a7565b600190505b949350505050565b505050565b600080823b905060008111915050919050565b600033905090565b828054620006dd9062000b1e565b90600052602060002090601f0160209004810192826200070157600085556200074d565b82601f106200071c57805160ff19168380011785556200074d565b828001600101855582156200074d579182015b828111156200074c5782518255916020019190600101906200072f565b5b5090506200075c919062000760565b5090565b5b808211156200077b57600081600090555060010162000761565b5090565b600081519050620007908162000cb3565b92915050565b600081519050620007a78162000ccd565b92915050565b600060208284031215620007c057600080fd5b6000620007d0848285016200077f565b91505092915050565b600060208284031215620007ec57600080fd5b6000620007fc8482850162000796565b91505092915050565b620008108162000a6a565b82525050565b60006200082382620009e0565b6200082f8185620009eb565b93506200084181856020860162000ae8565b6200084c8162000bb2565b840191505092915050565b600062000866603283620009fc565b9150620008738262000bc3565b604082019050919050565b60006200088d601c83620009fc565b91506200089a8262000c12565b602082019050919050565b6000620008b4602e83620009fc565b9150620008c18262000c3b565b604082019050919050565b6000620008db602083620009fc565b9150620008e88262000c8a565b602082019050919050565b620008fe8162000ade565b82525050565b60006080820190506200091b600083018762000805565b6200092a602083018662000805565b620009396040830185620008f3565b81810360608301526200094d818462000816565b905095945050505050565b60006020820190508181036000830152620009738162000857565b9050919050565b6000602082019050818103600083015262000995816200087e565b9050919050565b60006020820190508181036000830152620009b781620008a5565b9050919050565b60006020820190508181036000830152620009d981620008cc565b9050919050565b600081519050919050565b600082825260208201905092915050565b600082825260208201905092915050565b600062000a1a8262000ade565b915062000a278362000ade565b9250827fffffffffffffffffffffffffffffffffffffffffffffffffffffffffffffffff0382111562000a5f5762000a5e62000b54565b5b828201905092915050565b600062000a778262000abe565b9050919050565b600062000a8b8262000abe565b9050919050565b60007fffffffff0000000000000000000000000000000000000000000000000000000082169050919050565b600073ffffffffffffffffffffffffffffffffffffffff82169050919050565b6000819050919050565b60005b8381101562000b0857808201518184015260208101905062000aeb565b8381111562000b18576000848401525b50505050565b6000600282049050600182168062000b3757607f821691505b6020821081141562000b4e5762000b4d62000b83565b5b50919050565b7f4e487b7100000000000000000000000000000000000000000000000000000000600052601160045260246000fd5b7f4e487b7100000000000000000000000000000000000000000000000000000000600052602260045260246000fd5b6000601f19601f8301169050919050565b7f4552433732313a207472616e7366657220746f206e6f6e20455243373231526560008201527f63656976657220696d706c656d656e7465720000000000000000000000000000602082015250565b7f4552433732313a20746f6b656e20616c7265616479206d696e74656400000000600082015250565b7f45524337323155524953746f726167653a2055524920736574206f66206e6f6e60008201527f6578697374656e7420746f6b656e000000000000000000000000000000000000602082015250565b7f4552433732313a206d696e7420746f20746865207a65726f2061646472657373600082015250565b62000cbe8162000a7e565b811462000cca57600080fd5b50565b62000cd88162000a92565b811462000ce457600080fd5b50565b6125af8062000cf76000396000f3fe608060405234801561001057600080fd5b50600436106100cf5760003560e01c80636352211e1161008c578063a22cb46511610066578063a22cb46514610224578063b88d4fde14610240578063c87b56dd1461025c578063e985e9c51461028c576100cf565b80636352211e146101a657806370a08231146101d657806395d89b4114610206576100cf565b806301ffc9a7146100d457806306fdde0314610104578063081812fc14610122578063095ea7b31461015257806323b872dd1461016e57806342842e0e1461018a575b600080fd5b6100ee60048036038101906100e991906117f7565b6102bc565b6040516100fb9190611b94565b60405180910390f35b61010c61039e565b6040516101199190611baf565b60405180910390f35b61013c60048036038101906101379190611849565b610430565b6040516101499190611b2d565b60405180910390f35b61016c600480360381019061016791906117bb565b6104b5565b005b610188600480360381019061018391906116b5565b6105cd565b005b6101a4600480360381019061019f91906116b5565b61062d565b005b6101c060048036038101906101bb9190611849565b61064d565b6040516101cd9190611b2d565b60405180910390f35b6101f060048036038101906101eb9190611650565b6106ff565b6040516101fd9190611d71565b60405180910390f35b61020e6107b7565b60405161021b9190611baf565b60405180910390f35b61023e6004803603810190610239919061177f565b610849565b005b61025a60048036038101906102559190611704565b61085f565b005b61027660048036038101906102719190611849565b6108c1565b6040516102839190611baf565b60405180910390f35b6102a660048036038101906102a19190611679565b610a13565b6040516102b39190611b94565b60405180910390f35b60007f80ac58cd000000000000000000000000000000000000000000000000000000007bffffffffffffffffffffffffffffffffffffffffffffffffffffffff1916827bffffffffffffffffffffffffffffffffffffffffffffffffffffffff1916148061038757507f5b5e139f000000000000000000000000000000000000000000000000000000007bffffffffffffffffffffffffffffffffffffffffffffffffffffffff1916827bffffffffffffffffffffffffffffffffffffffffffffffffffffffff1916145b80610397575061039682610ade565b5b9050919050565b6060600080546103ad90611f96565b80601f01602080910402602001604051908101604052809291908181526020018280546103d990611f96565b80156104265780601f106103fb57610100808354040283529160200191610426565b820191906000526020600020905b81548152906001019060200180831161040957829003601f168201915b5050505050905090565b600061043b82610b48565b61047a576040517f08c379a000000000000000000000000000000000000000000000000000000000815260040161047190611cd1565b60405180910390fd5b6004600083815260200190815260200160002060009054906101000a900473ffffffffffffffffffffffffffffffffffffffff169050919050565b60006104c08261064d565b90508073ffffffffffffffffffffffffffffffffffffffff168373ffffffffffffffffffffffffffffffffffffffff161415610531576040517f08c379a000000000000000000000000000000000000000000000000000000000815260040161052890611d31565b60405180910390fd5b8073ffffffffffffffffffffffffffffffffffffffff16610550610bb4565b73ffffffffffffffffffffffffffffffffffffffff16148061057f575061057e81610579610bb4565b610a13565b5b6105be576040517f08c379a00000000000000000000000000000000000000000000000000000000081526004016105b590611c51565b60405180910390fd5b6105c88383610bbc565b505050565b6105de6105d8610bb4565b82610c75565b61061d576040517f08c379a000000000000000000000000000000000000000000000000000000000815260040161061490611d51565b60405180910390fd5b610628838383610d53565b505050565b6106488383836040518060200160405280600081525061085f565b505050565b6000806002600084815260200190815260200160002060009054906101000a900473ffffffffffffffffffffffffffffffffffffffff169050600073ffffffffffffffffffffffffffffffffffffffff168173ffffffffffffffffffffffffffffffffffffffff1614156106f6576040517f08c379a00000000000000000000000000000000000000000000000000000000081526004016106ed90611c91565b60405180910390fd5b80915050919050565b60008073ffffffffffffffffffffffffffffffffffffffff168273ffffffffffffffffffffffffffffffffffffffff161415610770576040517f08c379a000000000000000000000000000000000000000000000000000000000815260040161076790611c71565b60405180910390fd5b600360008373ffffffffffffffffffffffffffffffffffffffff1673ffffffffffffffffffffffffffffffffffffffff168152602001908152602001600020549050919050565b6060600180546107c690611f96565b80601f01602080910402602001604051908101604052809291908181526020018280546107f290611f96565b801561083f5780601f106108145761010080835404028352916020019161083f565b820191906000526020600020905b81548152906001019060200180831161082257829003601f168201915b5050505050905090565b61085b610854610bb4565b8383610faf565b5050565b61087061086a610bb4565b83610c75565b6108af576040517f08c379a00000000000000000000000000000000000000000000000000000000081526004016108a690611d51565b60405180910390fd5b6108bb8484848461111c565b50505050565b60606108cc82610b48565b61090b576040517f08c379a000000000000000000000000000000000000000000000000000000000815260040161090290611cb1565b60405180910390fd5b600060066000848152602001908152602001600020805461092b90611f96565b80601f016020809104026020016040519081016040528092919081815260200182805461095790611f96565b80156109a45780601f10610979576101008083540402835291602001916109a4565b820191906000526020600020905b81548152906001019060200180831161098757829003601f168201915b5050505050905060006109b5611178565b90506000815114156109cb578192505050610a0e565b600082511115610a005780826040516020016109e8929190611b09565b60405160208183030381529060405292505050610a0e565b610a098461118f565b925050505b919050565b6000600560008473ffffffffffffffffffffffffffffffffffffffff1673ffffffffffffffffffffffffffffffffffffffff16815260200190815260200160002060008373ffffffffffffffffffffffffffffffffffffffff1673ffffffffffffffffffffffffffffffffffffffff16815260200190815260200160002060009054906101000a900460ff16905092915050565b600081600001549050919050565b6001816000016000828254019250508190555050565b600080823b905060008111915050919050565b60007f01ffc9a7000000000000000000000000000000000000000000000000000000007bffffffffffffffffffffffffffffffffffffffffffffffffffffffff1916827bffffffffffffffffffffffffffffffffffffffffffffffffffffffff1916149050919050565b60008073ffffffffffffffffffffffffffffffffffffffff166002600084815260200190815260200160002060009054906101000a900473ffffffffffffffffffffffffffffffffffffffff1673ffffffffffffffffffffffffffffffffffffffff1614159050919050565b600033905090565b816004600083815260200190815260200160002060006101000a81548173ffffffffffffffffffffffffffffffffffffffff021916908373ffffffffffffffffffffffffffffffffffffffff160217905550808273ffffffffffffffffffffffffffffffffffffffff16610c2f8361064d565b73ffffffffffffffffffffffffffffffffffffffff167f8c5be1e5ebec7d5bd14f71427d1e84f3dd0314c0f7b2291e5b200ac8c7c3b92560405160405180910390a45050565b6000610c8082610b48565b610cbf576040517f08c379a0000000000000000000000000000000000000000000000000000000008152600401610cb690611c31565b60405180910390fd5b6000610cca8361064d565b90508073ffffffffffffffffffffffffffffffffffffffff168473ffffffffffffffffffffffffffffffffffffffff161480610d3957508373ffffffffffffffffffffffffffffffffffffffff16610d2184610430565b73ffffffffffffffffffffffffffffffffffffffff16145b80610d4a5750610d498185610a13565b5b91505092915050565b8273ffffffffffffffffffffffffffffffffffffffff16610d738261064d565b73ffffffffffffffffffffffffffffffffffffffff1614610dc9576040517f08c379a0000000000000000000000000000000000000000000000000000000008152600401610dc090611cf1565b60405180910390fd5b600073ffffffffffffffffffffffffffffffffffffffff168273ffffffffffffffffffffffffffffffffffffffff161415610e39576040517f08c379a0000000000000000000000000000000000000000000000000000000008152600401610e3090611bf1565b60405180910390fd5b610e44838383611236565b610e4f600082610bbc565b6001600360008573ffffffffffffffffffffffffffffffffffffffff1673ffffffffffffffffffffffffffffffffffffffff1681526020019081526020016000206000828254610e9f9190611eac565b925050819055506001600360008473ffffffffffffffffffffffffffffffffffffffff1673ffffffffffffffffffffffffffffffffffffffff1681526020019081526020016000206000828254610ef69190611e25565b92505081905550816002600083815260200190815260200160002060006101000a81548173ffffffffffffffffffffffffffffffffffffffff021916908373ffffffffffffffffffffffffffffffffffffffff160217905550808273ffffffffffffffffffffffffffffffffffffffff168473ffffffffffffffffffffffffffffffffffffffff167fddf252ad1be2c89b69c2b068fc378daa952ba7f163c4a11628f55a4df523b3ef60405160405180910390a4505050565b8173ffffffffffffffffffffffffffffffffffffffff168373ffffffffffffffffffffffffffffffffffffffff16141561101e576040517f08c379a000000000000000000000000000000000000000000000000000000000815260040161101590611c11565b60405180910390fd5b80600560008573ffffffffffffffffffffffffffffffffffffffff1673ffffffffffffffffffffffffffffffffffffffff16815260200190815260200160002060008473ffffffffffffffffffffffffffffffffffffffff1673ffffffffffffffffffffffffffffffffffffffff16815260200190815260200160002060006101000a81548160ff0219169083151502179055508173ffffffffffffffffffffffffffffffffffffffff168373ffffffffffffffffffffffffffffffffffffffff167f17307eab39ab6107e8899845ad3d59bd9653f200f220920489ca2b5937696c318360405161110f9190611b94565b60405180910390a3505050565b611127848484610d53565b6111338484848461123b565b611172576040517f08c379a000000000000000000000000000000000000000000000000000000000815260040161116990611bd1565b60405180910390fd5b50505050565b606060405180602001604052806000815250905090565b606061119a82610b48565b6111d9576040517f08c379a00000000000000000000000000000000000000000000000000000000081526004016111d090611d11565b60405180910390fd5b60006111e3611178565b90506000815111611203576040518060200160405280600081525061122e565b8061120d846113d2565b60405160200161121e929190611b09565b6040516020818303038152906040525b915050919050565b505050565b600061125c8473ffffffffffffffffffffffffffffffffffffffff16610acb565b156113c5578373ffffffffffffffffffffffffffffffffffffffff1663150b7a02611285610bb4565b8786866040518563ffffffff1660e01b81526004016112a79493929190611b48565b602060405180830381600087803b1580156112c157600080fd5b505af19250505080156112f257506040513d601f19601f820116820180604052508101906112ef9190611820565b60015b611375573d8060008114611322576040519150601f19603f3d011682016040523d82523d6000602084013e611327565b606091505b5060008151141561136d576040517f08c379a000000000000000000000000000000000000000000000000000000000815260040161136490611bd1565b60405180910390fd5b805181602001fd5b63150b7a0260e01b7bffffffffffffffffffffffffffffffffffffffffffffffffffffffff1916817bffffffffffffffffffffffffffffffffffffffffffffffffffffffff1916149150506113ca565b600190505b949350505050565b6060600082141561141a576040518060400160405280600181526020017f3000000000000000000000000000000000000000000000000000000000000000815250905061157a565b600082905060005b6000821461144c57808061143590611ff9565b915050600a826114459190611e7b565b9150611422565b60008167ffffffffffffffff81111561148e577f4e487b7100000000000000000000000000000000000000000000000000000000600052604160045260246000fd5b6040519080825280601f01601f1916602001820160405280156114c05781602001600182028036833780820191505090505b5090505b60008514611573576001826114d99190611eac565b9150600a856114e89190612042565b60306114f49190611e25565b60f81b818381518110611530577f4e487b7100000000000000000000000000000000000000000000000000000000600052603260045260246000fd5b60200101907effffffffffffffffffffffffffffffffffffffffffffffffffffffffffffff1916908160001a905350600a8561156c9190611e7b565b94506114c4565b8093505050505b919050565b600061159261158d84611db1565b611d8c565b9050828152602081018484840111156115aa57600080fd5b6115b5848285611f54565b509392505050565b6000813590506115cc8161251d565b92915050565b6000813590506115e181612534565b92915050565b6000813590506115f68161254b565b92915050565b60008151905061160b8161254b565b92915050565b600082601f83011261162257600080fd5b813561163284826020860161157f565b91505092915050565b60008135905061164a81612562565b92915050565b60006020828403121561166257600080fd5b6000611670848285016115bd565b91505092915050565b6000806040838503121561168c57600080fd5b600061169a858286016115bd565b92505060206116ab858286016115bd565b9150509250929050565b6000806000606084860312156116ca57600080fd5b60006116d8868287016115bd565b93505060206116e9868287016115bd565b92505060406116fa8682870161163b565b9150509250925092565b6000806000806080858703121561171a57600080fd5b6000611728878288016115bd565b9450506020611739878288016115bd565b935050604061174a8782880161163b565b925050606085013567ffffffffffffffff81111561176757600080fd5b61177387828801611611565b91505092959194509250565b6000806040838503121561179257600080fd5b60006117a0858286016115bd565b92505060206117b1858286016115d2565b9150509250929050565b600080604083850312156117ce57600080fd5b60006117dc858286016115bd565b92505060206117ed8582860161163b565b9150509250929050565b60006020828403121561180957600080fd5b6000611817848285016115e7565b91505092915050565b60006020828403121561183257600080fd5b6000611840848285016115fc565b91505092915050565b60006020828403121561185b57600080fd5b60006118698482850161163b565b91505092915050565b61187b81611ee0565b82525050565b61188a81611ef2565b82525050565b600061189b82611de2565b6118a58185611df8565b93506118b5818560208601611f63565b6118be8161212f565b840191505092915050565b60006118d482611ded565b6118de8185611e09565b93506118ee818560208601611f63565b6118f78161212f565b840191505092915050565b600061190d82611ded565b6119178185611e1a565b9350611927818560208601611f63565b80840191505092915050565b6000611940603283611e09565b915061194b82612140565b604082019050919050565b6000611963602483611e09565b915061196e8261218f565b604082019050919050565b6000611986601983611e09565b9150611991826121de565b602082019050919050565b60006119a9602c83611e09565b91506119b482612207565b604082019050919050565b60006119cc603883611e09565b91506119d782612256565b604082019050919050565b60006119ef602a83611e09565b91506119fa826122a5565b604082019050919050565b6000611a12602983611e09565b9150611a1d826122f4565b604082019050919050565b6000611a35603183611e09565b9150611a4082612343565b604082019050919050565b6000611a58602c83611e09565b9150611a6382612392565b604082019050919050565b6000611a7b602983611e09565b9150611a86826123e1565b604082019050919050565b6000611a9e602f83611e09565b9150611aa982612430565b604082019050919050565b6000611ac1602183611e09565b9150611acc8261247f565b604082019050919050565b6000611ae4603183611e09565b9150611aef826124ce565b604082019050919050565b611b0381611f4a565b82525050565b6000611b158285611902565b9150611b218284611902565b91508190509392505050565b6000602082019050611b426000830184611872565b92915050565b6000608082019050611b5d6000830187611872565b611b6a6020830186611872565b611b776040830185611afa565b8181036060830152611b898184611890565b905095945050505050565b6000602082019050611ba96000830184611881565b92915050565b60006020820190508181036000830152611bc981846118c9565b905092915050565b60006020820190508181036000830152611bea81611933565b9050919050565b60006020820190508181036000830152611c0a81611956565b9050919050565b60006020820190508181036000830152611c2a81611979565b9050919050565b60006020820190508181036000830152611c4a8161199c565b9050919050565b60006020820190508181036000830152611c6a816119bf565b9050919050565b60006020820190508181036000830152611c8a816119e2565b9050919050565b60006020820190508181036000830152611caa81611a05565b9050919050565b60006020820190508181036000830152611cca81611a28565b9050919050565b60006020820190508181036000830152611cea81611a4b565b9050919050565b60006020820190508181036000830152611d0a81611a6e565b9050919050565b60006020820190508181036000830152611d2a81611a91565b9050919050565b60006020820190508181036000830152611d4a81611ab4565b9050919050565b60006020820190508181036000830152611d6a81611ad7565b9050919050565b6000602082019050611d866000830184611afa565b92915050565b6000611d96611da7565b9050611da28282611fc8565b919050565b6000604051905090565b600067ffffffffffffffff821115611dcc57611dcb612100565b5b611dd58261212f565b9050602081019050919050565b600081519050919050565b600081519050919050565b600082825260208201905092915050565b600082825260208201905092915050565b600081905092915050565b6000611e3082611f4a565b9150611e3b83611f4a565b9250827fffffffffffffffffffffffffffffffffffffffffffffffffffffffffffffffff03821115611e7057611e6f612073565b5b828201905092915050565b6000611e8682611f4a565b9150611e9183611f4a565b925082611ea157611ea06120a2565b5b828204905092915050565b6000611eb782611f4a565b9150611ec283611f4a565b925082821015611ed557611ed4612073565b5b828203905092915050565b6000611eeb82611f2a565b9050919050565b60008115159050919050565b60007fffffffff0000000000000000000000000000000000000000000000000000000082169050919050565b600073ffffffffffffffffffffffffffffffffffffffff82169050919050565b6000819050919050565b82818337600083830152505050565b60005b83811015611f81578082015181840152602081019050611f66565b83811115611f90576000848401525b50505050565b60006002820490506001821680611fae57607f821691505b60208210811415611fc257611fc16120d1565b5b50919050565b611fd18261212f565b810181811067ffffffffffffffff82111715611ff057611fef612100565b5b80604052505050565b600061200482611f4a565b91507fffffffffffffffffffffffffffffffffffffffffffffffffffffffffffffffff82141561203757612036612073565b5b600182019050919050565b600061204d82611f4a565b915061205883611f4a565b925082612068576120676120a2565b5b828206905092915050565b7f4e487b7100000000000000000000000000000000000000000000000000000000600052601160045260246000fd5b7f4e487b7100000000000000000000000000000000000000000000000000000000600052601260045260246000fd5b7f4e487b7100000000000000000000000000000000000000000000000000000000600052602260045260246000fd5b7f4e487b7100000000000000000000000000000000000000000000000000000000600052604160045260246000fd5b6000601f19601f8301169050919050565b7f4552433732313a207472616e7366657220746f206e6f6e20455243373231526560008201527f63656976657220696d706c656d656e7465720000000000000000000000000000602082015250565b7f4552433732313a207472616e7366657220746f20746865207a65726f2061646460008201527f7265737300000000000000000000000000000000000000000000000000000000602082015250565b7f4552433732313a20617070726f766520746f2063616c6c657200000000000000600082015250565b7f4552433732313a206f70657261746f7220717565727920666f72206e6f6e657860008201527f697374656e7420746f6b656e0000000000000000000000000000000000000000602082015250565b7f4552433732313a20617070726f76652063616c6c6572206973206e6f74206f7760008201527f6e6572206e6f7220617070726f76656420666f7220616c6c0000000000000000602082015250565b7f4552433732313a2062616c616e636520717565727920666f7220746865207a6560008201527f726f206164647265737300000000000000000000000000000000000000000000602082015250565b7f4552433732313a206f776e657220717565727920666f72206e6f6e657869737460008201527f656e7420746f6b656e0000000000000000000000000000000000000000000000602082015250565b7f45524337323155524953746f726167653a2055524920717565727920666f722060008201527f6e6f6e6578697374656e7420746f6b656e000000000000000000000000000000602082015250565b7f4552433732313a20617070726f76656420717565727920666f72206e6f6e657860008201527f697374656e7420746f6b656e0000000000000000000000000000000000000000602082015250565b7f4552433732313a207472616e73666572206f6620746f6b656e2074686174206960008201527f73206e6f74206f776e0000000000000000000000000000000000000000000000602082015250565b7f4552433732314d657461646174613a2055524920717565727920666f72206e6f60008201527f6e6578697374656e7420746f6b656e0000000000000000000000000000000000602082015250565b7f4552433732313a20617070726f76616c20746f2063757272656e74206f776e6560008201527f7200000000000000000000000000000000000000000000000000000000000000602082015250565b7f4552433732313a207472616e736665722063616c6c6572206973206e6f74206f60008201527f776e6572206e6f7220617070726f766564000000000000000000000000000000602082015250565b61252681611ee0565b811461253157600080fd5b50565b61253d81611ef2565b811461254857600080fd5b50565b61255481611efe565b811461255f57600080fd5b50565b61256b81611f4a565b811461257657600080fd5b5056fea2646970667358221220cd7a42f427412293be3244efe6c6d4c83d253da957bac7c486e0935d1b1d515764736f6c63430008040033a26469706673582212203e9f9800f6153f2f8ecd7ab16eb2b529da2d2535a885240598bfa59ea395399e64736f6c63430008040033a264697066735822122041883cf537b4972aa1c1b2d2ba805da8488431193612f20d4d7e5031b198a39264736f6c63430008040033",
    "linkReferences": {},
    "deployedLinkReferences": {}
}