{
  "_format": "hh-sol-artifact-1",
  "contractName": "projectContract",
  "sourceName": "contracts/crowdfunding.sol",
  "abi": [
    {
      "anonymous": false,
      "inputs": [
        {
          "indexed": false,
          "internalType": "address",
          "name": "recipient",
          "type": "address"
        }
      ],
      "name": "CreatorPaid",
      "type": "event"
    },
    {
      "anonymous": false,
      "inputs": [
        {
          "indexed": false,
          "internalType": "address",
          "name": "contributor",
          "type": "address"
        },
        {
          "indexed": false,
          "internalType": "uint256",
          "name": "amount",
          "type": "uint256"
        },
        {
          "indexed": false,
          "internalType": "uint256",
          "name": "currentTotal",
          "type": "uint256"
        }
      ],
      "name": "FundingReceived",
      "type": "event"
    },
    {
      "inputs": [
        {
          "internalType": "uint256",
          "name": "_projectId",
          "type": "uint256"
        }
      ],
      "name": "checkIfFundingCompleteOrExpired",
      "outputs": [],
      "stateMutability": "nonpayable",
      "type": "function"
    },
    {
      "inputs": [
        {
          "internalType": "uint256",
          "name": "_projectId",
          "type": "uint256"
        }
      ],
      "name": "contribute",
      "outputs": [
        {
          "internalType": "bool",
          "name": "",
          "type": "bool"
        }
      ],
      "stateMutability": "payable",
      "type": "function"
    },
    {
      "inputs": [
        {
          "internalType": "uint256",
          "name": "_projectId",
          "type": "uint256"
        },
        {
          "internalType": "string",
          "name": "_desc",
          "type": "string"
        },
        {
          "internalType": "uint256",
          "name": "_value",
          "type": "uint256"
        },
        {
          "internalType": "address payable",
          "name": "_receipient",
          "type": "address"
        }
      ],
      "name": "createRequest",
      "outputs": [
        {
          "internalType": "bool",
          "name": "",
          "type": "bool"
        }
      ],
      "stateMutability": "nonpayable",
      "type": "function"
    },
    {
      "inputs": [],
      "name": "getAllProjects",
      "outputs": [
        {
          "components": [
            {
              "internalType": "uint256",
              "name": "projectId",
              "type": "uint256"
            },
            {
              "internalType": "address payable",
              "name": "creator",
              "type": "address"
            },
            {
              "internalType": "string",
              "name": "title",
              "type": "string"
            },
            {
              "internalType": "string",
              "name": "description",
              "type": "string"
            },
            {
              "internalType": "uint256",
              "name": "amountGoal",
              "type": "uint256"
            },
            {
              "internalType": "uint256",
              "name": "currentBalance",
              "type": "uint256"
            },
            {
              "internalType": "uint256",
              "name": "deadline",
              "type": "uint256"
            },
            {
              "internalType": "string",
              "name": "location",
              "type": "string"
            },
            {
              "internalType": "string",
              "name": "category",
              "type": "string"
            },
            {
              "internalType": "string",
              "name": "img",
              "type": "string"
            },
            {
              "internalType": "enum projectContract.State",
              "name": "state",
              "type": "uint8"
            },
            {
              "internalType": "uint256",
              "name": "noOfContributors",
              "type": "uint256"
            },
            {
              "internalType": "uint256",
              "name": "numRequests",
              "type": "uint256"
            },
            {
              "components": [
                {
                  "internalType": "string",
                  "name": "desc",
                  "type": "string"
                },
                {
                  "internalType": "uint256",
                  "name": "value",
                  "type": "uint256"
                },
                {
                  "internalType": "address payable",
                  "name": "receipient",
                  "type": "address"
                },
                {
                  "internalType": "bool",
                  "name": "status",
                  "type": "bool"
                },
                {
                  "internalType": "uint256",
                  "name": "noOfVoter",
                  "type": "uint256"
                }
              ],
              "internalType": "struct projectContract.RequestDetails[]",
              "name": "requestsDetails",
              "type": "tuple[]"
            }
          ],
          "internalType": "struct projectContract.ProjectR[]",
          "name": "",
          "type": "tuple[]"
        }
      ],
      "stateMutability": "view",
      "type": "function"
    },
    {
      "inputs": [
        {
          "internalType": "uint256",
          "name": "_projectID",
          "type": "uint256"
        }
      ],
      "name": "getAllRequests",
      "outputs": [
        {
          "components": [
            {
              "internalType": "string",
              "name": "desc",
              "type": "string"
            },
            {
              "internalType": "uint256",
              "name": "value",
              "type": "uint256"
            },
            {
              "internalType": "address payable",
              "name": "receipient",
              "type": "address"
            },
            {
              "internalType": "bool",
              "name": "status",
              "type": "bool"
            },
            {
              "internalType": "uint256",
              "name": "noOfVoter",
              "type": "uint256"
            }
          ],
          "internalType": "struct projectContract.RequestDetails[]",
          "name": "",
          "type": "tuple[]"
        }
      ],
      "stateMutability": "view",
      "type": "function"
    },
    {
      "inputs": [],
      "name": "getContractBalance",
      "outputs": [
        {
          "internalType": "uint256",
          "name": "",
          "type": "uint256"
        }
      ],
      "stateMutability": "view",
      "type": "function"
    },
    {
      "inputs": [
        {
          "internalType": "uint256",
          "name": "_projectId",
          "type": "uint256"
        }
      ],
      "name": "getDetails",
      "outputs": [
        {
          "components": [
            {
              "internalType": "uint256",
              "name": "projectId",
              "type": "uint256"
            },
            {
              "internalType": "address payable",
              "name": "creator",
              "type": "address"
            },
            {
              "internalType": "string",
              "name": "title",
              "type": "string"
            },
            {
              "internalType": "string",
              "name": "description",
              "type": "string"
            },
            {
              "internalType": "uint256",
              "name": "amountGoal",
              "type": "uint256"
            },
            {
              "internalType": "uint256",
              "name": "currentBalance",
              "type": "uint256"
            },
            {
              "internalType": "uint256",
              "name": "deadline",
              "type": "uint256"
            },
            {
              "internalType": "string",
              "name": "location",
              "type": "string"
            },
            {
              "internalType": "string",
              "name": "category",
              "type": "string"
            },
            {
              "internalType": "string",
              "name": "img",
              "type": "string"
            },
            {
              "internalType": "enum projectContract.State",
              "name": "state",
              "type": "uint8"
            },
            {
              "internalType": "uint256",
              "name": "noOfContributors",
              "type": "uint256"
            },
            {
              "internalType": "uint256",
              "name": "numRequests",
              "type": "uint256"
            },
            {
              "components": [
                {
                  "internalType": "string",
                  "name": "desc",
                  "type": "string"
                },
                {
                  "internalType": "uint256",
                  "name": "value",
                  "type": "uint256"
                },
                {
                  "internalType": "address payable",
                  "name": "receipient",
                  "type": "address"
                },
                {
                  "internalType": "bool",
                  "name": "status",
                  "type": "bool"
                },
                {
                  "internalType": "uint256",
                  "name": "noOfVoter",
                  "type": "uint256"
                }
              ],
              "internalType": "struct projectContract.RequestDetails[]",
              "name": "requestsDetails",
              "type": "tuple[]"
            }
          ],
          "internalType": "struct projectContract.ProjectR",
          "name": "",
          "type": "tuple"
        }
      ],
      "stateMutability": "view",
      "type": "function"
    },
    {
      "inputs": [
        {
          "internalType": "uint256",
          "name": "_projectId",
          "type": "uint256"
        },
        {
          "internalType": "uint256",
          "name": "_requestId",
          "type": "uint256"
        }
      ],
      "name": "getNoOfVoters",
      "outputs": [
        {
          "internalType": "uint256",
          "name": "",
          "type": "uint256"
        }
      ],
      "stateMutability": "view",
      "type": "function"
    },
    {
      "inputs": [
        {
          "internalType": "uint256",
          "name": "_projectId",
          "type": "uint256"
        }
      ],
      "name": "getRefund",
      "outputs": [
        {
          "internalType": "bool",
          "name": "",
          "type": "bool"
        }
      ],
      "stateMutability": "nonpayable",
      "type": "function"
    },
    {
      "inputs": [
        {
          "internalType": "uint256",
          "name": "_projectId",
          "type": "uint256"
        },
        {
          "internalType": "address",
          "name": "_toCheck",
          "type": "address"
        }
      ],
      "name": "myContributions",
      "outputs": [
        {
          "internalType": "uint256",
          "name": "",
          "type": "uint256"
        }
      ],
      "stateMutability": "view",
      "type": "function"
    },
    {
      "inputs": [
        {
          "internalType": "uint256",
          "name": "",
          "type": "uint256"
        }
      ],
      "name": "projectsR",
      "outputs": [
        {
          "internalType": "uint256",
          "name": "projectId",
          "type": "uint256"
        },
        {
          "internalType": "address payable",
          "name": "creator",
          "type": "address"
        },
        {
          "internalType": "string",
          "name": "title",
          "type": "string"
        },
        {
          "internalType": "string",
          "name": "description",
          "type": "string"
        },
        {
          "internalType": "uint256",
          "name": "amountGoal",
          "type": "uint256"
        },
        {
          "internalType": "uint256",
          "name": "currentBalance",
          "type": "uint256"
        },
        {
          "internalType": "uint256",
          "name": "deadline",
          "type": "uint256"
        },
        {
          "internalType": "string",
          "name": "location",
          "type": "string"
        },
        {
          "internalType": "string",
          "name": "category",
          "type": "string"
        },
        {
          "internalType": "string",
          "name": "img",
          "type": "string"
        },
        {
          "internalType": "enum projectContract.State",
          "name": "state",
          "type": "uint8"
        },
        {
          "internalType": "uint256",
          "name": "noOfContributors",
          "type": "uint256"
        },
        {
          "internalType": "uint256",
          "name": "numRequests",
          "type": "uint256"
        }
      ],
      "stateMutability": "view",
      "type": "function"
    },
    {
      "inputs": [
        {
          "internalType": "string",
          "name": "_projectTitle",
          "type": "string"
        },
        {
          "internalType": "string",
          "name": "_projectDesc",
          "type": "string"
        },
        {
          "internalType": "uint256",
          "name": "_fundRaisingDeadline",
          "type": "uint256"
        },
        {
          "internalType": "uint256",
          "name": "_goalAmount",
          "type": "uint256"
        },
        {
          "internalType": "string",
          "name": "_location",
          "type": "string"
        },
        {
          "internalType": "string",
          "name": "_category",
          "type": "string"
        },
        {
          "internalType": "string",
          "name": "_img",
          "type": "string"
        },
        {
          "internalType": "string",
          "name": "_uri",
          "type": "string"
        }
      ],
      "name": "startProject",
      "outputs": [],
      "stateMutability": "nonpayable",
      "type": "function"
    },
    {
      "inputs": [
        {
          "internalType": "uint256",
          "name": "_projectId",
          "type": "uint256"
        },
        {
          "internalType": "uint256",
          "name": "_requestNo",
          "type": "uint256"
        }
      ],
      "name": "voteRequest",
      "outputs": [
        {
          "internalType": "bool",
          "name": "",
          "type": "bool"
        },
        {
          "internalType": "uint256",
          "name": "",
          "type": "uint256"
        }
      ],
      "stateMutability": "nonpayable",
      "type": "function"
    }
  ],
  "bytecode": "0x608060405234801561001057600080fd5b506181c780620000216000396000f3fe608060405260043610620000d45760003560e01c80638af130c1116200008b578063b93a89f71162000061578063b93a89f714620002f5578063c1cbbca71462000339578063c4da4c13146200036f578063d2f0be9914620003b357620000d4565b80638af130c11462000233578063901c3b281462000278578063b057db4614620002c757620000d4565b80630bbcab9914620000d9578063330516c9146200011d578063358ef816146200016157806336300438146200018f5780636f9fb98a14620001bf5780637374a1bf14620001ef575b600080fd5b348015620000e657600080fd5b50620001056004803603810190620000ff919062003d6a565b620003f7565b604051620001149190620046cb565b60405180910390f35b3480156200012a57600080fd5b5062000149600480360381019062000143919062003cb9565b62000467565b60405162000158919062004529565b60405180910390f35b3480156200016e57600080fd5b506200018d600480360381019062000187919062003cb9565b62000633565b005b3480156200019c57600080fd5b50620001a7620009a1565b604051620001b6919062004505565b60405180910390f35b348015620001cc57600080fd5b50620001d762000f06565b604051620001e69190620046cb565b60405180910390f35b348015620001fc57600080fd5b506200021b600480360381019062000215919062003ce5565b62000f0e565b6040516200022a91906200454d565b60405180910390f35b3480156200024057600080fd5b506200025f600480360381019062000259919062003d6a565b62001493565b6040516200026f9291906200456a565b60405180910390f35b3480156200028557600080fd5b50620002a460048036038101906200029e919062003cb9565b62001a02565b604051620002be9c9b9a99989796959493929190620046e8565b60405180910390f35b348015620002d457600080fd5b50620002f36004803603810190620002ed919062003bbf565b62001ce0565b005b3480156200030257600080fd5b506200032160048036038101906200031b919062003cb9565b6200259a565b604051620003309190620046a7565b60405180910390f35b62000357600480360381019062000351919062003cb9565b62002b03565b6040516200036691906200454d565b60405180910390f35b3480156200037c57600080fd5b506200039b600480360381019062000395919062003cb9565b620030a2565b604051620003aa9190620046cb565b60405180910390f35b348015620003c057600080fd5b50620003df6004803603810190620003d9919062003cb9565b62003135565b604051620003ee91906200454d565b60405180910390f35b6000806001848154811062000435577f4e487b7100000000000000000000000000000000000000000000000000000000600052603260045260246000fd5b90600052602060002090600e0201600c0160008481526020019081526020016000209050806003015491505092915050565b606060028281548110620004a4577f4e487b7100000000000000000000000000000000000000000000000000000000600052603260045260246000fd5b90600052602060002090600d0201600c01805480602002602001604051908101604052809291908181526020016000905b828210156200062857838290600052602060002090600402016040518060a00160405290816000820180546200050b9062004b0a565b80601f0160208091040260200160405190810160405280929190818152602001828054620005399062004b0a565b80156200058a5780601f106200055e576101008083540402835291602001916200058a565b820191906000526020600020905b8154815290600101906020018083116200056c57829003601f168201915b50505050508152602001600182015481526020016002820160009054906101000a900473ffffffffffffffffffffffffffffffffffffffff1673ffffffffffffffffffffffffffffffffffffffff1673ffffffffffffffffffffffffffffffffffffffff1681526020016002820160149054906101000a900460ff1615151515815260200160038201548152505081526020019060010190620004d5565b505050509050919050565b600181815481106200066e577f4e487b7100000000000000000000000000000000000000000000000000000000600052603260045260246000fd5b90600052602060002090600e02016004015460018281548110620006bb577f4e487b7100000000000000000000000000000000000000000000000000000000600052603260045260246000fd5b90600052602060002090600e02016005015410620008105760026001828154811062000710577f4e487b7100000000000000000000000000000000000000000000000000000000600052603260045260246000fd5b90600052602060002090600e020160090160006101000a81548160ff021916908360028111156200076a577f4e487b7100000000000000000000000000000000000000000000000000000000600052602160045260246000fd5b02179055506002808281548110620007ab577f4e487b7100000000000000000000000000000000000000000000000000000000600052603260045260246000fd5b90600052602060002090600d020160090160006101000a81548160ff0219169083600281111562000805577f4e487b7100000000000000000000000000000000000000000000000000000000600052602160045260246000fd5b02179055506200099e565b600181815481106200084b577f4e487b7100000000000000000000000000000000000000000000000000000000600052603260045260246000fd5b90600052602060002090600e0201600601544211156200099d576001808281548110620008a1577f4e487b7100000000000000000000000000000000000000000000000000000000600052603260045260246000fd5b90600052602060002090600e020160090160006101000a81548160ff02191690836002811115620008fb577f4e487b7100000000000000000000000000000000000000000000000000000000600052602160045260246000fd5b02179055506001600282815481106200093d577f4e487b7100000000000000000000000000000000000000000000000000000000600052603260045260246000fd5b90600052602060002090600d020160090160006101000a81548160ff0219169083600281111562000997577f4e487b7100000000000000000000000000000000000000000000000000000000600052602160045260246000fd5b02179055505b5b50565b60606002805480602002602001604051908101604052809291908181526020016000905b8282101562000efd57838290600052602060002090600d0201604051806101a0016040529081600082015481526020016001820160009054906101000a900473ffffffffffffffffffffffffffffffffffffffff1673ffffffffffffffffffffffffffffffffffffffff1673ffffffffffffffffffffffffffffffffffffffff16815260200160028201805462000a5c9062004b0a565b80601f016020809104026020016040519081016040528092919081815260200182805462000a8a9062004b0a565b801562000adb5780601f1062000aaf5761010080835404028352916020019162000adb565b820191906000526020600020905b81548152906001019060200180831162000abd57829003601f168201915b5050505050815260200160038201805462000af69062004b0a565b80601f016020809104026020016040519081016040528092919081815260200182805462000b249062004b0a565b801562000b755780601f1062000b495761010080835404028352916020019162000b75565b820191906000526020600020905b81548152906001019060200180831162000b5757829003601f168201915b5050505050815260200160048201548152602001600582015481526020016006820154815260200160078201805462000bae9062004b0a565b80601f016020809104026020016040519081016040528092919081815260200182805462000bdc9062004b0a565b801562000c2d5780601f1062000c015761010080835404028352916020019162000c2d565b820191906000526020600020905b81548152906001019060200180831162000c0f57829003601f168201915b5050505050815260200160088201805462000c489062004b0a565b80601f016020809104026020016040519081016040528092919081815260200182805462000c769062004b0a565b801562000cc75780601f1062000c9b5761010080835404028352916020019162000cc7565b820191906000526020600020905b81548152906001019060200180831162000ca957829003601f168201915b505050505081526020016009820160009054906101000a900460ff16600281111562000d1c577f4e487b7100000000000000000000000000000000000000000000000000000000600052602160045260246000fd5b600281111562000d55577f4e487b7100000000000000000000000000000000000000000000000000000000600052602160045260246000fd5b8152602001600a8201548152602001600b8201548152602001600c8201805480602002602001604051908101604052809291908181526020016000905b8282101562000ee557838290600052602060002090600402016040518060a001604052908160008201805462000dc89062004b0a565b80601f016020809104026020016040519081016040528092919081815260200182805462000df69062004b0a565b801562000e475780601f1062000e1b5761010080835404028352916020019162000e47565b820191906000526020600020905b81548152906001019060200180831162000e2957829003601f168201915b50505050508152602001600182015481526020016002820160009054906101000a900473ffffffffffffffffffffffffffffffffffffffff1673ffffffffffffffffffffffffffffffffffffffff1673ffffffffffffffffffffffffffffffffffffffff1681526020016002820160149054906101000a900460ff161515151581526020016003820154815250508152602001906001019062000d92565b505050508152505081526020019060010190620009c5565b50505050905090565b600047905090565b600060028081111562000f4a577f4e487b7100000000000000000000000000000000000000000000000000000000600052602160045260246000fd5b6001868154811062000f85577f4e487b7100000000000000000000000000000000000000000000000000000000600052603260045260246000fd5b90600052602060002090600e020160090160009054906101000a900460ff16600281111562000fdd577f4e487b7100000000000000000000000000000000000000000000000000000000600052602160045260246000fd5b1462001020576040517f08c379a00000000000000000000000000000000000000000000000000000000081526004016200101790620045db565b60405180910390fd5b600185815481106200105b577f4e487b7100000000000000000000000000000000000000000000000000000000600052603260045260246000fd5b90600052602060002090600e020160010160009054906101000a900473ffffffffffffffffffffffffffffffffffffffff1673ffffffffffffffffffffffffffffffffffffffff163373ffffffffffffffffffffffffffffffffffffffff1614620010fd576040517f08c379a0000000000000000000000000000000000000000000000000000000008152600401620010f49062004685565b60405180910390fd5b6001858154811062001138577f4e487b7100000000000000000000000000000000000000000000000000000000600052603260045260246000fd5b90600052602060002090600e0201600501548311156200115757600080fd5b60006001868154811062001194577f4e487b7100000000000000000000000000000000000000000000000000000000600052603260045260246000fd5b90600052602060002090600e0201600d01549050600060018781548110620011e5577f4e487b7100000000000000000000000000000000000000000000000000000000600052603260045260246000fd5b90600052602060002090600e0201600c016000838152602001908152602001600020905060006002888154811062001246577f4e487b7100000000000000000000000000000000000000000000000000000000600052603260045260246000fd5b90600052602060002090600d0201600c01838154811062001290577f4e487b7100000000000000000000000000000000000000000000000000000000600052603260045260246000fd5b9060005260206000209060040201905060018881548110620012db577f4e487b7100000000000000000000000000000000000000000000000000000000600052603260045260246000fd5b90600052602060002090600e0201600d016000815480929190620012ff9062004b76565b9190505550600288815481106200133f577f4e487b7100000000000000000000000000000000000000000000000000000000600052603260045260246000fd5b90600052602060002090600d0201600b016000815480929190620013639062004b76565b91905055508682600001908051906020019062001382929190620039aa565b50858260010181905550848260020160006101000a81548173ffffffffffffffffffffffffffffffffffffffff021916908373ffffffffffffffffffffffffffffffffffffffff16021790555060008260020160146101000a81548160ff021916908315150217905550600082600301819055508681600001908051906020019062001410929190620039aa565b50858160010181905550848160020160006101000a81548173ffffffffffffffffffffffffffffffffffffffff021916908373ffffffffffffffffffffffffffffffffffffffff16021790555060008160020160146101000a81548160ff0219169083151502179055506000816003018190555060019350505050949350505050565b600080600280811115620014d0577f4e487b7100000000000000000000000000000000000000000000000000000000600052602160045260246000fd5b600185815481106200150b577f4e487b7100000000000000000000000000000000000000000000000000000000600052603260045260246000fd5b90600052602060002090600e020160090160009054906101000a900460ff16600281111562001563577f4e487b7100000000000000000000000000000000000000000000000000000000600052602160045260246000fd5b14620015a6576040517f08c379a00000000000000000000000000000000000000000000000000000000081526004016200159d90620045db565b60405180910390fd5b600060018581548110620015e3577f4e487b7100000000000000000000000000000000000000000000000000000000600052603260045260246000fd5b90600052602060002090600e0201600a0160003373ffffffffffffffffffffffffffffffffffffffff1673ffffffffffffffffffffffffffffffffffffffff168152602001908152602001600020541162001675576040517f08c379a00000000000000000000000000000000000000000000000000000000081526004016200166c906200461f565b60405180910390fd5b600060018581548110620016b2577f4e487b7100000000000000000000000000000000000000000000000000000000600052603260045260246000fd5b90600052602060002090600e0201600c016000858152602001908152602001600020905060006002868154811062001713577f4e487b7100000000000000000000000000000000000000000000000000000000600052603260045260246000fd5b90600052602060002090600d0201600c0185815481106200175d577f4e487b7100000000000000000000000000000000000000000000000000000000600052603260045260246000fd5b90600052602060002090600402019050620017cf600260018881548110620017ae577f4e487b7100000000000000000000000000000000000000000000000000000000600052603260045260246000fd5b90600052602060002090600e0201600b01546200364e90919063ffffffff16565b826003015410620017df57600080fd5b600015158260040160003373ffffffffffffffffffffffffffffffffffffffff1673ffffffffffffffffffffffffffffffffffffffff16815260200190815260200160002060009054906101000a900460ff1615151462001877576040517f08c379a00000000000000000000000000000000000000000000000000000000081526004016200186e9062004597565b60405180910390fd5b8160030160008154809291906200188e9062004b76565b9190505550806003016000815480929190620018aa9062004b76565b919050555060018260040160003373ffffffffffffffffffffffffffffffffffffffff1673ffffffffffffffffffffffffffffffffffffffff16815260200190815260200160002060006101000a81548160ff0219169083151502179055506200196b6002600188815481106200194a577f4e487b7100000000000000000000000000000000000000000000000000000000600052603260045260246000fd5b90600052602060002090600e0201600b01546200364e90919063ffffffff16565b826003015410620019ed5760018260020160146101000a81548160ff02191690831515021790555060018160020160146101000a81548160ff021916908315150217905550620019e6868360020160009054906101000a900473ffffffffffffffffffffffffffffffffffffffff1684600101548862003666565b50620019ee565b5b600082600301549350935050509250929050565b6002818154811062001a1357600080fd5b90600052602060002090600d02016000915090508060000154908060010160009054906101000a900473ffffffffffffffffffffffffffffffffffffffff169080600201805462001a649062004b0a565b80601f016020809104026020016040519081016040528092919081815260200182805462001a929062004b0a565b801562001ae35780601f1062001ab75761010080835404028352916020019162001ae3565b820191906000526020600020905b81548152906001019060200180831162001ac557829003601f168201915b50505050509080600301805462001afa9062004b0a565b80601f016020809104026020016040519081016040528092919081815260200182805462001b289062004b0a565b801562001b795780601f1062001b4d5761010080835404028352916020019162001b79565b820191906000526020600020905b81548152906001019060200180831162001b5b57829003601f168201915b50505050509080600401549080600501549080600601549080600701805462001ba29062004b0a565b80601f016020809104026020016040519081016040528092919081815260200182805462001bd09062004b0a565b801562001c215780601f1062001bf55761010080835404028352916020019162001c21565b820191906000526020600020905b81548152906001019060200180831162001c0357829003601f168201915b50505050509080600801805462001c389062004b0a565b80601f016020809104026020016040519081016040528092919081815260200182805462001c669062004b0a565b801562001cb75780601f1062001c8b5761010080835404028352916020019162001cb7565b820191906000526020600020905b81548152906001019060200180831162001c9957829003601f168201915b5050505050908060090160009054906101000a900460ff169080600a01549080600b015490508c565b600180816001815401808255809150500390600052602060002090505060006001808054905062001d129190620049db565b90506000546001828154811062001d52577f4e487b7100000000000000000000000000000000000000000000000000000000600052603260045260246000fd5b90600052602060002090600e020160000181905550336001828154811062001da3577f4e487b7100000000000000000000000000000000000000000000000000000000600052603260045260246000fd5b90600052602060002090600e020160010160006101000a81548173ffffffffffffffffffffffffffffffffffffffff021916908373ffffffffffffffffffffffffffffffffffffffff160217905550866001828154811062001e2e577f4e487b7100000000000000000000000000000000000000000000000000000000600052603260045260246000fd5b90600052602060002090600e0201600201908051906020019062001e54929190620039aa565b50856001828154811062001e91577f4e487b7100000000000000000000000000000000000000000000000000000000600052603260045260246000fd5b90600052602060002090600e0201600301908051906020019062001eb7929190620039aa565b50836001828154811062001ef4577f4e487b7100000000000000000000000000000000000000000000000000000000600052603260045260246000fd5b90600052602060002090600e02016004018190555062001f3362001f23603c876200396290919063ffffffff16565b426200397a90919063ffffffff16565b6001828154811062001f6e577f4e487b7100000000000000000000000000000000000000000000000000000000600052603260045260246000fd5b90600052602060002090600e02016006018190555060006001828154811062001fc0577f4e487b7100000000000000000000000000000000000000000000000000000000600052603260045260246000fd5b90600052602060002090600e020160050181905550826001828154811062002011577f4e487b7100000000000000000000000000000000000000000000000000000000600052603260045260246000fd5b90600052602060002090600e0201600701908051906020019062002037929190620039aa565b50816001828154811062002074577f4e487b7100000000000000000000000000000000000000000000000000000000600052603260045260246000fd5b90600052602060002090600e020160080190805190602001906200209a929190620039aa565b50600060018281548110620020d8577f4e487b7100000000000000000000000000000000000000000000000000000000600052603260045260246000fd5b90600052602060002090600e020160090160006101000a81548160ff0219169083600281111562002132577f4e487b7100000000000000000000000000000000000000000000000000000000600052602160045260246000fd5b02179055506002600181600181540180825580915050039060005260206000209050506000546002828154811062002193577f4e487b7100000000000000000000000000000000000000000000000000000000600052603260045260246000fd5b90600052602060002090600d0201600001819055503360028281548110620021e4577f4e487b7100000000000000000000000000000000000000000000000000000000600052603260045260246000fd5b90600052602060002090600d020160010160006101000a81548173ffffffffffffffffffffffffffffffffffffffff021916908373ffffffffffffffffffffffffffffffffffffffff16021790555086600282815481106200226f577f4e487b7100000000000000000000000000000000000000000000000000000000600052603260045260246000fd5b90600052602060002090600d0201600201908051906020019062002295929190620039aa565b508560028281548110620022d2577f4e487b7100000000000000000000000000000000000000000000000000000000600052603260045260246000fd5b90600052602060002090600d02016003019080519060200190620022f8929190620039aa565b50836002828154811062002335577f4e487b7100000000000000000000000000000000000000000000000000000000600052603260045260246000fd5b90600052602060002090600d0201600401819055506200237462002364603c876200396290919063ffffffff16565b426200397a90919063ffffffff16565b60028281548110620023af577f4e487b7100000000000000000000000000000000000000000000000000000000600052603260045260246000fd5b90600052602060002090600d02016006018190555060006002828154811062002401577f4e487b7100000000000000000000000000000000000000000000000000000000600052603260045260246000fd5b90600052602060002090600d020160050181905550826002828154811062002452577f4e487b7100000000000000000000000000000000000000000000000000000000600052603260045260246000fd5b90600052602060002090600d0201600701908051906020019062002478929190620039aa565b508160028281548110620024b5577f4e487b7100000000000000000000000000000000000000000000000000000000600052603260045260246000fd5b90600052602060002090600d02016008019080519060200190620024db929190620039aa565b5060006002828154811062002519577f4e487b7100000000000000000000000000000000000000000000000000000000600052603260045260246000fd5b90600052602060002090600d020160090160006101000a81548160ff0219169083600281111562002573577f4e487b7100000000000000000000000000000000000000000000000000000000600052602160045260246000fd5b02179055506000808154809291906200258c9062004b76565b919050555050505050505050565b620025a462003a3b565b60028281548110620025df577f4e487b7100000000000000000000000000000000000000000000000000000000600052603260045260246000fd5b90600052602060002090600d0201604051806101a0016040529081600082015481526020016001820160009054906101000a900473ffffffffffffffffffffffffffffffffffffffff1673ffffffffffffffffffffffffffffffffffffffff1673ffffffffffffffffffffffffffffffffffffffff1681526020016002820180546200266b9062004b0a565b80601f0160208091040260200160405190810160405280929190818152602001828054620026999062004b0a565b8015620026ea5780601f10620026be57610100808354040283529160200191620026ea565b820191906000526020600020905b815481529060010190602001808311620026cc57829003601f168201915b50505050508152602001600382018054620027059062004b0a565b80601f0160208091040260200160405190810160405280929190818152602001828054620027339062004b0a565b8015620027845780601f10620027585761010080835404028352916020019162002784565b820191906000526020600020905b8154815290600101906020018083116200276657829003601f168201915b50505050508152602001600482015481526020016005820154815260200160068201548152602001600782018054620027bd9062004b0a565b80601f0160208091040260200160405190810160405280929190818152602001828054620027eb9062004b0a565b80156200283c5780601f1062002810576101008083540402835291602001916200283c565b820191906000526020600020905b8154815290600101906020018083116200281e57829003601f168201915b50505050508152602001600882018054620028579062004b0a565b80601f0160208091040260200160405190810160405280929190818152602001828054620028859062004b0a565b8015620028d65780601f10620028aa57610100808354040283529160200191620028d6565b820191906000526020600020905b815481529060010190602001808311620028b857829003601f168201915b505050505081526020016009820160009054906101000a900460ff1660028111156200292b577f4e487b7100000000000000000000000000000000000000000000000000000000600052602160045260246000fd5b600281111562002964577f4e487b7100000000000000000000000000000000000000000000000000000000600052602160045260246000fd5b8152602001600a8201548152602001600b8201548152602001600c8201805480602002602001604051908101604052809291908181526020016000905b8282101562002af457838290600052602060002090600402016040518060a0016040529081600082018054620029d79062004b0a565b80601f016020809104026020016040519081016040528092919081815260200182805462002a059062004b0a565b801562002a565780601f1062002a2a5761010080835404028352916020019162002a56565b820191906000526020600020905b81548152906001019060200180831162002a3857829003601f168201915b50505050508152602001600182015481526020016002820160009054906101000a900473ffffffffffffffffffffffffffffffffffffffff1673ffffffffffffffffffffffffffffffffffffffff1673ffffffffffffffffffffffffffffffffffffffff1681526020016002820160149054906101000a900460ff1615151515815260200160038201548152505081526020019060010190620029a1565b50505050815250509050919050565b60006001828154811062002b40577f4e487b7100000000000000000000000000000000000000000000000000000000600052603260045260246000fd5b90600052602060002090600e020160010160009054906101000a900473ffffffffffffffffffffffffffffffffffffffff1673ffffffffffffffffffffffffffffffffffffffff163373ffffffffffffffffffffffffffffffffffffffff16141562002be3576040517f08c379a000000000000000000000000000000000000000000000000000000000815260040162002bda9062004663565b60405180910390fd5b62002bee8262000633565b6000600281111562002c29577f4e487b7100000000000000000000000000000000000000000000000000000000600052602160045260246000fd5b6001838154811062002c64577f4e487b7100000000000000000000000000000000000000000000000000000000600052603260045260246000fd5b90600052602060002090600e020160090160009054906101000a900460ff16600281111562002cbc577f4e487b7100000000000000000000000000000000000000000000000000000000600052602160045260246000fd5b1462002cff576040517f08c379a000000000000000000000000000000000000000000000000000000000815260040162002cf690620045b9565b60405180910390fd5b62002d9d346001848154811062002d3f577f4e487b7100000000000000000000000000000000000000000000000000000000600052603260045260246000fd5b90600052602060002090600e0201600a0160003373ffffffffffffffffffffffffffffffffffffffff1673ffffffffffffffffffffffffffffffffffffffff168152602001908152602001600020546200397a90919063ffffffff16565b6001838154811062002dd8577f4e487b7100000000000000000000000000000000000000000000000000000000600052603260045260246000fd5b90600052602060002090600e0201600a0160003373ffffffffffffffffffffffffffffffffffffffff1673ffffffffffffffffffffffffffffffffffffffff1681526020019081526020016000208190555062002e8b346001848154811062002e6a577f4e487b7100000000000000000000000000000000000000000000000000000000600052603260045260246000fd5b90600052602060002090600e0201600501546200397a90919063ffffffff16565b6001838154811062002ec6577f4e487b7100000000000000000000000000000000000000000000000000000000600052603260045260246000fd5b90600052602060002090600e0201600501819055506001828154811062002f16577f4e487b7100000000000000000000000000000000000000000000000000000000600052603260045260246000fd5b90600052602060002090600e0201600b01600081548092919062002f3a9062004b76565b91905055506002828154811062002f7a577f4e487b7100000000000000000000000000000000000000000000000000000000600052603260045260246000fd5b90600052602060002090600d0201600a01600081548092919062002f9e9062004b76565b919050555062003004346002848154811062002fe3577f4e487b7100000000000000000000000000000000000000000000000000000000600052603260045260246000fd5b90600052602060002090600d0201600501546200397a90919063ffffffff16565b600283815481106200303f577f4e487b7100000000000000000000000000000000000000000000000000000000600052603260045260246000fd5b90600052602060002090600d02016005018190555033604051620030639062003af2565b6200306f9190620044e8565b604051809103906000f0801580156200308c573d6000803e3d6000fd5b5050620030998262000633565b60019050919050565b600060018281548110620030df577f4e487b7100000000000000000000000000000000000000000000000000000000600052603260045260246000fd5b90600052602060002090600e0201600a0160003373ffffffffffffffffffffffffffffffffffffffff1673ffffffffffffffffffffffffffffffffffffffff168152602001908152602001600020549050919050565b6000620031428262000633565b600160028111156200317d577f4e487b7100000000000000000000000000000000000000000000000000000000600052602160045260246000fd5b60018381548110620031b8577f4e487b7100000000000000000000000000000000000000000000000000000000600052603260045260246000fd5b90600052602060002090600e020160090160009054906101000a900460ff16600281111562003210577f4e487b7100000000000000000000000000000000000000000000000000000000600052602160045260246000fd5b1462003253576040517f08c379a00000000000000000000000000000000000000000000000000000000081526004016200324a9062004641565b60405180910390fd5b60006001838154811062003290577f4e487b7100000000000000000000000000000000000000000000000000000000600052603260045260246000fd5b90600052602060002090600e0201600a0160003373ffffffffffffffffffffffffffffffffffffffff1673ffffffffffffffffffffffffffffffffffffffff1681526020019081526020016000205411620032ea57600080fd5b60006001838154811062003327577f4e487b7100000000000000000000000000000000000000000000000000000000600052603260045260246000fd5b90600052602060002090600e0201600a0160003373ffffffffffffffffffffffffffffffffffffffff1673ffffffffffffffffffffffffffffffffffffffff168152602001908152602001600020549050600060018481548110620033b5577f4e487b7100000000000000000000000000000000000000000000000000000000600052603260045260246000fd5b90600052602060002090600e0201600a0160003373ffffffffffffffffffffffffffffffffffffffff1673ffffffffffffffffffffffffffffffffffffffff1681526020019081526020016000208190555060003390508073ffffffffffffffffffffffffffffffffffffffff166108fc839081150290604051600060405180830381858888f19350505050620034e057816001858154811062003482577f4e487b7100000000000000000000000000000000000000000000000000000000600052603260045260246000fd5b90600052602060002090600e0201600a0160003373ffffffffffffffffffffffffffffffffffffffff1673ffffffffffffffffffffffffffffffffffffffff1681526020019081526020016000208190555060009250505062003649565b62003541826001868154811062003520577f4e487b7100000000000000000000000000000000000000000000000000000000600052603260045260246000fd5b90600052602060002090600e0201600501546200399290919063ffffffff16565b600185815481106200357c577f4e487b7100000000000000000000000000000000000000000000000000000000600052603260045260246000fd5b90600052602060002090600e020160050181905550620035f28260028681548110620035d1577f4e487b7100000000000000000000000000000000000000000000000000000000600052603260045260246000fd5b90600052602060002090600d0201600501546200399290919063ffffffff16565b600285815481106200362d577f4e487b7100000000000000000000000000000000000000000000000000000000600052603260045260246000fd5b90600052602060002090600d0201600501819055506001925050505b919050565b600081836200365e919062004942565b905092915050565b60008060018681548110620036a4577f4e487b7100000000000000000000000000000000000000000000000000000000600052603260045260246000fd5b90600052602060002090600e0201600c01600084815260200190815260200160002090506200372a60026001888154811062003709577f4e487b7100000000000000000000000000000000000000000000000000000000600052603260045260246000fd5b90600052602060002090600e0201600b01546200364e90919063ffffffff16565b8160030154101562003773576040517f08c379a00000000000000000000000000000000000000000000000000000000081526004016200376a90620045fd565b60405180910390fd5b8473ffffffffffffffffffffffffffffffffffffffff166108fc859081150290604051600060405180830381858888f193505050501562003954577f2f256415efc8561af8db667cb242964b19be7380f379ccdafaa0e54a6f6b706985604051620037df9190620044cb565b60405180910390a162003848846001888154811062003827577f4e487b7100000000000000000000000000000000000000000000000000000000600052603260045260246000fd5b90600052602060002090600e0201600501546200399290919063ffffffff16565b6001878154811062003883577f4e487b7100000000000000000000000000000000000000000000000000000000600052603260045260246000fd5b90600052602060002090600e020160050181905550620038f98460028881548110620038d8577f4e487b7100000000000000000000000000000000000000000000000000000000600052603260045260246000fd5b90600052602060002090600d0201600501546200399290919063ffffffff16565b6002878154811062003934577f4e487b7100000000000000000000000000000000000000000000000000000000600052603260045260246000fd5b90600052602060002090600d02016005018190555060019150506200395a565b60009150505b949350505050565b600081836200397291906200497a565b905092915050565b600081836200398a9190620048e5565b905092915050565b60008183620039a29190620049db565b905092915050565b828054620039b89062004b0a565b90600052602060002090601f016020900481019282620039dc576000855562003a28565b82601f10620039f757805160ff191683800117855562003a28565b8280016001018555821562003a28579182015b8281111562003a2757825182559160200191906001019062003a0a565b5b50905062003a37919062003b00565b5090565b604051806101a0016040528060008152602001600073ffffffffffffffffffffffffffffffffffffffff168152602001606081526020016060815260200160008152602001600081526020016000815260200160608152602001606081526020016000600281111562003ad7577f4e487b7100000000000000000000000000000000000000000000000000000000600052602160045260246000fd5b81526020016000815260200160008152602001606081525090565b6132a68062004eec83390190565b5b8082111562003b1b57600081600090555060010162003b01565b5090565b600062003b3662003b3084620047ff565b620047d6565b90508281526020810184848401111562003b4f57600080fd5b62003b5c84828562004ac5565b509392505050565b60008135905062003b758162004eb7565b92915050565b600082601f83011262003b8d57600080fd5b813562003b9f84826020860162003b1f565b91505092915050565b60008135905062003bb98162004ed1565b92915050565b60008060008060008060c0878903121562003bd957600080fd5b600087013567ffffffffffffffff81111562003bf457600080fd5b62003c0289828a0162003b7b565b965050602087013567ffffffffffffffff81111562003c2057600080fd5b62003c2e89828a0162003b7b565b955050604062003c4189828a0162003ba8565b945050606062003c5489828a0162003ba8565b935050608087013567ffffffffffffffff81111562003c7257600080fd5b62003c8089828a0162003b7b565b92505060a087013567ffffffffffffffff81111562003c9e57600080fd5b62003cac89828a0162003b7b565b9150509295509295509295565b60006020828403121562003ccc57600080fd5b600062003cdc8482850162003ba8565b91505092915050565b6000806000806080858703121562003cfc57600080fd5b600062003d0c8782880162003ba8565b945050602085013567ffffffffffffffff81111562003d2a57600080fd5b62003d388782880162003b7b565b935050604062003d4b8782880162003ba8565b925050606062003d5e8782880162003b64565b91505092959194509250565b6000806040838503121562003d7e57600080fd5b600062003d8e8582860162003ba8565b925050602062003da18582860162003ba8565b9150509250929050565b600062003db983836200418b565b905092915050565b600062003dcf838362004429565b905092915050565b62003de28162004a75565b82525050565b62003df38162004a16565b82525050565b62003e048162004a16565b82525050565b600062003e178262004855565b62003e23818562004890565b93508360208202850162003e378562004835565b8060005b8581101562003e79578484038952815162003e57858262003dab565b945062003e648362004876565b925060208a0199505060018101905062003e3b565b50829750879550505050505092915050565b600062003e988262004860565b62003ea48185620048a1565b93508360208202850162003eb88562004845565b8060005b8581101562003efa578484038952815162003ed8858262003dc1565b945062003ee58362004883565b925060208a0199505060018101905062003ebc565b50829750879550505050505092915050565b600062003f198262004860565b62003f258185620048b2565b93508360208202850162003f398562004845565b8060005b8581101562003f7b578484038952815162003f59858262003dc1565b945062003f668362004883565b925060208a0199505060018101905062003f3d565b50829750879550505050505092915050565b62003f988162004a2a565b82525050565b62003fa98162004a2a565b82525050565b62003fba8162004a89565b82525050565b62003fcb8162004a89565b82525050565b600062003fde826200486b565b62003fea8185620048c3565b935062003ffc81856020860162004ad4565b620040078162004caf565b840191505092915050565b60006200401f826200486b565b6200402b8185620048d4565b93506200403d81856020860162004ad4565b620040488162004caf565b840191505092915050565b600062004062601683620048d4565b91506200406f8262004cc0565b602082019050919050565b600062004089602d83620048d4565b9150620040968262004ce9565b604082019050919050565b6000620040b0603283620048d4565b9150620040bd8262004d38565b604082019050919050565b6000620040d7601c83620048d4565b9150620040e48262004d87565b602082019050919050565b6000620040fe602183620048d4565b91506200410b8262004db0565b604082019050919050565b600062004125602183620048d4565b9150620041328262004dff565b604082019050919050565b60006200414c602083620048d4565b9150620041598262004e4e565b602082019050919050565b600062004173601f83620048d4565b9150620041808262004e77565b602082019050919050565b60006101a083016000830151620041a66000860182620044a9565b506020830151620041bb602086018262003de8565b5060408301518482036040860152620041d5828262003fd1565b91505060608301518482036060860152620041f1828262003fd1565b9150506080830151620042086080860182620044a9565b5060a08301516200421d60a0860182620044a9565b5060c08301516200423260c0860182620044a9565b5060e083015184820360e08601526200424c828262003fd1565b9150506101008301518482036101008601526200426a828262003fd1565b9150506101208301516200428361012086018262003faf565b506101408301516200429a610140860182620044a9565b50610160830151620042b1610160860182620044a9565b50610180830151848203610180860152620042cd828262003e8b565b9150508091505092915050565b60006101a083016000830151620042f56000860182620044a9565b5060208301516200430a602086018262003de8565b506040830151848203604086015262004324828262003fd1565b9150506060830151848203606086015262004340828262003fd1565b9150506080830151620043576080860182620044a9565b5060a08301516200436c60a0860182620044a9565b5060c08301516200438160c0860182620044a9565b5060e083015184820360e08601526200439b828262003fd1565b915050610100830151848203610100860152620043b9828262003fd1565b915050610120830151620043d261012086018262003faf565b50610140830151620043e9610140860182620044a9565b5061016083015162004400610160860182620044a9565b506101808301518482036101808601526200441c828262003e8b565b9150508091505092915050565b600060a083016000830151848203600086015262004448828262003fd1565b91505060208301516200445f6020860182620044a9565b50604083015162004474604086018262003de8565b50606083015162004489606086018262003f8d565b5060808301516200449e6080860182620044a9565b508091505092915050565b620044b48162004a6b565b82525050565b620044c58162004a6b565b82525050565b6000602082019050620044e2600083018462003dd7565b92915050565b6000602082019050620044ff600083018462003df9565b92915050565b6000602082019050818103600083015262004521818462003e0a565b905092915050565b6000602082019050818103600083015262004545818462003f0c565b905092915050565b600060208201905062004564600083018462003f9e565b92915050565b600060408201905062004581600083018562003f9e565b620045906020830184620044ba565b9392505050565b60006020820190508181036000830152620045b28162004053565b9050919050565b60006020820190508181036000830152620045d4816200407a565b9050919050565b60006020820190508181036000830152620045f681620040a1565b9050919050565b600060208201905081810360008301526200461881620040c8565b9050919050565b600060208201905081810360008301526200463a81620040ef565b9050919050565b600060208201905081810360008301526200465c8162004116565b9050919050565b600060208201905081810360008301526200467e816200413d565b9050919050565b60006020820190508181036000830152620046a08162004164565b9050919050565b60006020820190508181036000830152620046c38184620042da565b905092915050565b6000602082019050620046e26000830184620044ba565b92915050565b60006101808201905062004700600083018f620044ba565b6200470f602083018e62003df9565b818103604083015262004723818d62004012565b9050818103606083015262004739818c62004012565b90506200474a608083018b620044ba565b6200475960a083018a620044ba565b6200476860c0830189620044ba565b81810360e08301526200477c818862004012565b905081810361010083015262004793818762004012565b9050620047a561012083018662003fc0565b620047b5610140830185620044ba565b620047c5610160830184620044ba565b9d9c50505050505050505050505050565b6000620047e2620047f5565b9050620047f0828262004b40565b919050565b6000604051905090565b600067ffffffffffffffff8211156200481d576200481c62004c80565b5b620048288262004caf565b9050602081019050919050565b6000819050602082019050919050565b6000819050602082019050919050565b600081519050919050565b600081519050919050565b600081519050919050565b6000602082019050919050565b6000602082019050919050565b600082825260208201905092915050565b600082825260208201905092915050565b600082825260208201905092915050565b600082825260208201905092915050565b600082825260208201905092915050565b6000620048f28262004a6b565b9150620048ff8362004a6b565b9250827fffffffffffffffffffffffffffffffffffffffffffffffffffffffffffffffff0382111562004937576200493662004bc4565b5b828201905092915050565b60006200494f8262004a6b565b91506200495c8362004a6b565b9250826200496f576200496e62004bf3565b5b828204905092915050565b6000620049878262004a6b565b9150620049948362004a6b565b9250817fffffffffffffffffffffffffffffffffffffffffffffffffffffffffffffffff0483118215151615620049d057620049cf62004bc4565b5b828202905092915050565b6000620049e88262004a6b565b9150620049f58362004a6b565b92508282101562004a0b5762004a0a62004bc4565b5b828203905092915050565b600062004a238262004a4b565b9050919050565b60008115159050919050565b600081905062004a468262004ea0565b919050565b600073ffffffffffffffffffffffffffffffffffffffff82169050919050565b6000819050919050565b600062004a828262004a9d565b9050919050565b600062004a968262004a36565b9050919050565b600062004aaa8262004ab1565b9050919050565b600062004abe8262004a4b565b9050919050565b82818337600083830152505050565b60005b8381101562004af457808201518184015260208101905062004ad7565b8381111562004b04576000848401525b50505050565b6000600282049050600182168062004b2357607f821691505b6020821081141562004b3a5762004b3962004c51565b5b50919050565b62004b4b8262004caf565b810181811067ffffffffffffffff8211171562004b6d5762004b6c62004c80565b5b80604052505050565b600062004b838262004a6b565b91507fffffffffffffffffffffffffffffffffffffffffffffffffffffffffffffffff82141562004bb95762004bb862004bc4565b5b600182019050919050565b7f4e487b7100000000000000000000000000000000000000000000000000000000600052601160045260246000fd5b7f4e487b7100000000000000000000000000000000000000000000000000000000600052601260045260246000fd5b7f4e487b7100000000000000000000000000000000000000000000000000000000600052602160045260246000fd5b7f4e487b7100000000000000000000000000000000000000000000000000000000600052602260045260246000fd5b7f4e487b7100000000000000000000000000000000000000000000000000000000600052604160045260246000fd5b6000601f19601f8301169050919050565b7f796f75206861766520616c726561647920766f74656400000000000000000000600082015250565b7f70726f6a6563742065787069726564206f722073756363657366756c2063616e60008201527f277420636f6e7472696275746500000000000000000000000000000000000000602082015250565b7f70726f6a6563742065787069726564206f72207375636365737366756c20636160008201527f6e27742063726561746520726571756573740000000000000000000000000000602082015250565b7f636f6e646974696f6e206e6f742066756c6c66696c6c65642079657400000000600082015250565b7f796f75206d757374206265206120636f6e7472696275746f7220746f20766f7460008201527f6500000000000000000000000000000000000000000000000000000000000000602082015250565b7f70726f6a656374206e6f7420657870697265642c2063616e277420726566756e60008201527f6400000000000000000000000000000000000000000000000000000000000000602082015250565b7f50726f6a6563742063726561746f722063616e277420636f6e74726962757465600082015250565b7f6f6e6c79206d616e616765722063616e20637265617465205265717565737400600082015250565b6003811062004eb45762004eb362004c22565b5b50565b62004ec28162004a16565b811462004ece57600080fd5b50565b62004edc8162004a6b565b811462004ee857600080fd5b5056fe60806040523480156200001157600080fd5b50604051620032a6380380620032a68339818101604052810190620000379190620007ad565b6040518060400160405280600481526020017f4b495241000000000000000000000000000000000000000000000000000000008152506040518060400160405280600481526020017f4b495241000000000000000000000000000000000000000000000000000000008152508160009080519060200190620000bb929190620006cf565b508060019080519060200190620000d4929190620006cf565b5050506000620000f060076200016a60201b62000aa71760201c565b90506200010482826200017860201b60201c565b6200014b816040518060400160405280601d81526020017f68747470733a2f2f6a736f6e6b65657065722e636f6d2f622f344553380000008152506200019e60201b60201c565b6200016260076200021f60201b62000ab51760201c565b505062000ce7565b600081600001549050919050565b6200019a8282604051806020016040528060008152506200023560201b60201c565b5050565b620001af82620002a360201b60201c565b620001f1576040517f08c379a0000000000000000000000000000000000000000000000000000000008152600401620001e8906200099c565b60405180910390fd5b806006600084815260200190815260200160002090805190602001906200021a929190620006cf565b505050565b6001816000016000828254019250508190555050565b6200024783836200030f60201b60201c565b6200025c6000848484620004f560201b60201c565b6200029e576040517f08c379a0000000000000000000000000000000000000000000000000000000008152600401620002959062000958565b60405180910390fd5b505050565b60008073ffffffffffffffffffffffffffffffffffffffff166002600084815260200190815260200160002060009054906101000a900473ffffffffffffffffffffffffffffffffffffffff1673ffffffffffffffffffffffffffffffffffffffff1614159050919050565b600073ffffffffffffffffffffffffffffffffffffffff168273ffffffffffffffffffffffffffffffffffffffff16141562000382576040517f08c379a00000000000000000000000000000000000000000000000000000000081526004016200037990620009be565b60405180910390fd5b6200039381620002a360201b60201c565b15620003d6576040517f08c379a0000000000000000000000000000000000000000000000000000000008152600401620003cd906200097a565b60405180910390fd5b620003ea60008383620006af60201b60201c565b6001600360008473ffffffffffffffffffffffffffffffffffffffff1673ffffffffffffffffffffffffffffffffffffffff16815260200190815260200160002060008282546200043c919062000a0d565b92505081905550816002600083815260200190815260200160002060006101000a81548173ffffffffffffffffffffffffffffffffffffffff021916908373ffffffffffffffffffffffffffffffffffffffff160217905550808273ffffffffffffffffffffffffffffffffffffffff16600073ffffffffffffffffffffffffffffffffffffffff167fddf252ad1be2c89b69c2b068fc378daa952ba7f163c4a11628f55a4df523b3ef60405160405180910390a45050565b6000620005238473ffffffffffffffffffffffffffffffffffffffff16620006b460201b62000acb1760201c565b15620006a2578373ffffffffffffffffffffffffffffffffffffffff1663150b7a0262000555620006c760201b60201c565b8786866040518563ffffffff1660e01b815260040162000579949392919062000904565b602060405180830381600087803b1580156200059457600080fd5b505af1925050508015620005c857506040513d601f19601f82011682018060405250810190620005c59190620007d9565b60015b62000651573d8060008114620005fb576040519150601f19603f3d011682016040523d82523d6000602084013e62000600565b606091505b5060008151141562000649576040517f08c379a0000000000000000000000000000000000000000000000000000000008152600401620006409062000958565b60405180910390fd5b805181602001fd5b63150b7a0260e01b7bffffffffffffffffffffffffffffffffffffffffffffffffffffffff1916817bffffffffffffffffffffffffffffffffffffffffffffffffffffffff191614915050620006a7565b600190505b949350505050565b505050565b600080823b905060008111915050919050565b600033905090565b828054620006dd9062000b1e565b90600052602060002090601f0160209004810192826200070157600085556200074d565b82601f106200071c57805160ff19168380011785556200074d565b828001600101855582156200074d579182015b828111156200074c5782518255916020019190600101906200072f565b5b5090506200075c919062000760565b5090565b5b808211156200077b57600081600090555060010162000761565b5090565b600081519050620007908162000cb3565b92915050565b600081519050620007a78162000ccd565b92915050565b600060208284031215620007c057600080fd5b6000620007d0848285016200077f565b91505092915050565b600060208284031215620007ec57600080fd5b6000620007fc8482850162000796565b91505092915050565b620008108162000a6a565b82525050565b60006200082382620009e0565b6200082f8185620009eb565b93506200084181856020860162000ae8565b6200084c8162000bb2565b840191505092915050565b600062000866603283620009fc565b9150620008738262000bc3565b604082019050919050565b60006200088d601c83620009fc565b91506200089a8262000c12565b602082019050919050565b6000620008b4602e83620009fc565b9150620008c18262000c3b565b604082019050919050565b6000620008db602083620009fc565b9150620008e88262000c8a565b602082019050919050565b620008fe8162000ade565b82525050565b60006080820190506200091b600083018762000805565b6200092a602083018662000805565b620009396040830185620008f3565b81810360608301526200094d818462000816565b905095945050505050565b60006020820190508181036000830152620009738162000857565b9050919050565b6000602082019050818103600083015262000995816200087e565b9050919050565b60006020820190508181036000830152620009b781620008a5565b9050919050565b60006020820190508181036000830152620009d981620008cc565b9050919050565b600081519050919050565b600082825260208201905092915050565b600082825260208201905092915050565b600062000a1a8262000ade565b915062000a278362000ade565b9250827fffffffffffffffffffffffffffffffffffffffffffffffffffffffffffffffff0382111562000a5f5762000a5e62000b54565b5b828201905092915050565b600062000a778262000abe565b9050919050565b600062000a8b8262000abe565b9050919050565b60007fffffffff0000000000000000000000000000000000000000000000000000000082169050919050565b600073ffffffffffffffffffffffffffffffffffffffff82169050919050565b6000819050919050565b60005b8381101562000b0857808201518184015260208101905062000aeb565b8381111562000b18576000848401525b50505050565b6000600282049050600182168062000b3757607f821691505b6020821081141562000b4e5762000b4d62000b83565b5b50919050565b7f4e487b7100000000000000000000000000000000000000000000000000000000600052601160045260246000fd5b7f4e487b7100000000000000000000000000000000000000000000000000000000600052602260045260246000fd5b6000601f19601f8301169050919050565b7f4552433732313a207472616e7366657220746f206e6f6e20455243373231526560008201527f63656976657220696d706c656d656e7465720000000000000000000000000000602082015250565b7f4552433732313a20746f6b656e20616c7265616479206d696e74656400000000600082015250565b7f45524337323155524953746f726167653a2055524920736574206f66206e6f6e60008201527f6578697374656e7420746f6b656e000000000000000000000000000000000000602082015250565b7f4552433732313a206d696e7420746f20746865207a65726f2061646472657373600082015250565b62000cbe8162000a7e565b811462000cca57600080fd5b50565b62000cd88162000a92565b811462000ce457600080fd5b50565b6125af8062000cf76000396000f3fe608060405234801561001057600080fd5b50600436106100cf5760003560e01c80636352211e1161008c578063a22cb46511610066578063a22cb46514610224578063b88d4fde14610240578063c87b56dd1461025c578063e985e9c51461028c576100cf565b80636352211e146101a657806370a08231146101d657806395d89b4114610206576100cf565b806301ffc9a7146100d457806306fdde0314610104578063081812fc14610122578063095ea7b31461015257806323b872dd1461016e57806342842e0e1461018a575b600080fd5b6100ee60048036038101906100e991906117f7565b6102bc565b6040516100fb9190611b94565b60405180910390f35b61010c61039e565b6040516101199190611baf565b60405180910390f35b61013c60048036038101906101379190611849565b610430565b6040516101499190611b2d565b60405180910390f35b61016c600480360381019061016791906117bb565b6104b5565b005b610188600480360381019061018391906116b5565b6105cd565b005b6101a4600480360381019061019f91906116b5565b61062d565b005b6101c060048036038101906101bb9190611849565b61064d565b6040516101cd9190611b2d565b60405180910390f35b6101f060048036038101906101eb9190611650565b6106ff565b6040516101fd9190611d71565b60405180910390f35b61020e6107b7565b60405161021b9190611baf565b60405180910390f35b61023e6004803603810190610239919061177f565b610849565b005b61025a60048036038101906102559190611704565b61085f565b005b61027660048036038101906102719190611849565b6108c1565b6040516102839190611baf565b60405180910390f35b6102a660048036038101906102a19190611679565b610a13565b6040516102b39190611b94565b60405180910390f35b60007f80ac58cd000000000000000000000000000000000000000000000000000000007bffffffffffffffffffffffffffffffffffffffffffffffffffffffff1916827bffffffffffffffffffffffffffffffffffffffffffffffffffffffff1916148061038757507f5b5e139f000000000000000000000000000000000000000000000000000000007bffffffffffffffffffffffffffffffffffffffffffffffffffffffff1916827bffffffffffffffffffffffffffffffffffffffffffffffffffffffff1916145b80610397575061039682610ade565b5b9050919050565b6060600080546103ad90611f96565b80601f01602080910402602001604051908101604052809291908181526020018280546103d990611f96565b80156104265780601f106103fb57610100808354040283529160200191610426565b820191906000526020600020905b81548152906001019060200180831161040957829003601f168201915b5050505050905090565b600061043b82610b48565b61047a576040517f08c379a000000000000000000000000000000000000000000000000000000000815260040161047190611cd1565b60405180910390fd5b6004600083815260200190815260200160002060009054906101000a900473ffffffffffffffffffffffffffffffffffffffff169050919050565b60006104c08261064d565b90508073ffffffffffffffffffffffffffffffffffffffff168373ffffffffffffffffffffffffffffffffffffffff161415610531576040517f08c379a000000000000000000000000000000000000000000000000000000000815260040161052890611d31565b60405180910390fd5b8073ffffffffffffffffffffffffffffffffffffffff16610550610bb4565b73ffffffffffffffffffffffffffffffffffffffff16148061057f575061057e81610579610bb4565b610a13565b5b6105be576040517f08c379a00000000000000000000000000000000000000000000000000000000081526004016105b590611c51565b60405180910390fd5b6105c88383610bbc565b505050565b6105de6105d8610bb4565b82610c75565b61061d576040517f08c379a000000000000000000000000000000000000000000000000000000000815260040161061490611d51565b60405180910390fd5b610628838383610d53565b505050565b6106488383836040518060200160405280600081525061085f565b505050565b6000806002600084815260200190815260200160002060009054906101000a900473ffffffffffffffffffffffffffffffffffffffff169050600073ffffffffffffffffffffffffffffffffffffffff168173ffffffffffffffffffffffffffffffffffffffff1614156106f6576040517f08c379a00000000000000000000000000000000000000000000000000000000081526004016106ed90611c91565b60405180910390fd5b80915050919050565b60008073ffffffffffffffffffffffffffffffffffffffff168273ffffffffffffffffffffffffffffffffffffffff161415610770576040517f08c379a000000000000000000000000000000000000000000000000000000000815260040161076790611c71565b60405180910390fd5b600360008373ffffffffffffffffffffffffffffffffffffffff1673ffffffffffffffffffffffffffffffffffffffff168152602001908152602001600020549050919050565b6060600180546107c690611f96565b80601f01602080910402602001604051908101604052809291908181526020018280546107f290611f96565b801561083f5780601f106108145761010080835404028352916020019161083f565b820191906000526020600020905b81548152906001019060200180831161082257829003601f168201915b5050505050905090565b61085b610854610bb4565b8383610faf565b5050565b61087061086a610bb4565b83610c75565b6108af576040517f08c379a00000000000000000000000000000000000000000000000000000000081526004016108a690611d51565b60405180910390fd5b6108bb8484848461111c565b50505050565b60606108cc82610b48565b61090b576040517f08c379a000000000000000000000000000000000000000000000000000000000815260040161090290611cb1565b60405180910390fd5b600060066000848152602001908152602001600020805461092b90611f96565b80601f016020809104026020016040519081016040528092919081815260200182805461095790611f96565b80156109a45780601f10610979576101008083540402835291602001916109a4565b820191906000526020600020905b81548152906001019060200180831161098757829003601f168201915b5050505050905060006109b5611178565b90506000815114156109cb578192505050610a0e565b600082511115610a005780826040516020016109e8929190611b09565b60405160208183030381529060405292505050610a0e565b610a098461118f565b925050505b919050565b6000600560008473ffffffffffffffffffffffffffffffffffffffff1673ffffffffffffffffffffffffffffffffffffffff16815260200190815260200160002060008373ffffffffffffffffffffffffffffffffffffffff1673ffffffffffffffffffffffffffffffffffffffff16815260200190815260200160002060009054906101000a900460ff16905092915050565b600081600001549050919050565b6001816000016000828254019250508190555050565b600080823b905060008111915050919050565b60007f01ffc9a7000000000000000000000000000000000000000000000000000000007bffffffffffffffffffffffffffffffffffffffffffffffffffffffff1916827bffffffffffffffffffffffffffffffffffffffffffffffffffffffff1916149050919050565b60008073ffffffffffffffffffffffffffffffffffffffff166002600084815260200190815260200160002060009054906101000a900473ffffffffffffffffffffffffffffffffffffffff1673ffffffffffffffffffffffffffffffffffffffff1614159050919050565b600033905090565b816004600083815260200190815260200160002060006101000a81548173ffffffffffffffffffffffffffffffffffffffff021916908373ffffffffffffffffffffffffffffffffffffffff160217905550808273ffffffffffffffffffffffffffffffffffffffff16610c2f8361064d565b73ffffffffffffffffffffffffffffffffffffffff167f8c5be1e5ebec7d5bd14f71427d1e84f3dd0314c0f7b2291e5b200ac8c7c3b92560405160405180910390a45050565b6000610c8082610b48565b610cbf576040517f08c379a0000000000000000000000000000000000000000000000000000000008152600401610cb690611c31565b60405180910390fd5b6000610cca8361064d565b90508073ffffffffffffffffffffffffffffffffffffffff168473ffffffffffffffffffffffffffffffffffffffff161480610d3957508373ffffffffffffffffffffffffffffffffffffffff16610d2184610430565b73ffffffffffffffffffffffffffffffffffffffff16145b80610d4a5750610d498185610a13565b5b91505092915050565b8273ffffffffffffffffffffffffffffffffffffffff16610d738261064d565b73ffffffffffffffffffffffffffffffffffffffff1614610dc9576040517f08c379a0000000000000000000000000000000000000000000000000000000008152600401610dc090611cf1565b60405180910390fd5b600073ffffffffffffffffffffffffffffffffffffffff168273ffffffffffffffffffffffffffffffffffffffff161415610e39576040517f08c379a0000000000000000000000000000000000000000000000000000000008152600401610e3090611bf1565b60405180910390fd5b610e44838383611236565b610e4f600082610bbc565b6001600360008573ffffffffffffffffffffffffffffffffffffffff1673ffffffffffffffffffffffffffffffffffffffff1681526020019081526020016000206000828254610e9f9190611eac565b925050819055506001600360008473ffffffffffffffffffffffffffffffffffffffff1673ffffffffffffffffffffffffffffffffffffffff1681526020019081526020016000206000828254610ef69190611e25565b92505081905550816002600083815260200190815260200160002060006101000a81548173ffffffffffffffffffffffffffffffffffffffff021916908373ffffffffffffffffffffffffffffffffffffffff160217905550808273ffffffffffffffffffffffffffffffffffffffff168473ffffffffffffffffffffffffffffffffffffffff167fddf252ad1be2c89b69c2b068fc378daa952ba7f163c4a11628f55a4df523b3ef60405160405180910390a4505050565b8173ffffffffffffffffffffffffffffffffffffffff168373ffffffffffffffffffffffffffffffffffffffff16141561101e576040517f08c379a000000000000000000000000000000000000000000000000000000000815260040161101590611c11565b60405180910390fd5b80600560008573ffffffffffffffffffffffffffffffffffffffff1673ffffffffffffffffffffffffffffffffffffffff16815260200190815260200160002060008473ffffffffffffffffffffffffffffffffffffffff1673ffffffffffffffffffffffffffffffffffffffff16815260200190815260200160002060006101000a81548160ff0219169083151502179055508173ffffffffffffffffffffffffffffffffffffffff168373ffffffffffffffffffffffffffffffffffffffff167f17307eab39ab6107e8899845ad3d59bd9653f200f220920489ca2b5937696c318360405161110f9190611b94565b60405180910390a3505050565b611127848484610d53565b6111338484848461123b565b611172576040517f08c379a000000000000000000000000000000000000000000000000000000000815260040161116990611bd1565b60405180910390fd5b50505050565b606060405180602001604052806000815250905090565b606061119a82610b48565b6111d9576040517f08c379a00000000000000000000000000000000000000000000000000000000081526004016111d090611d11565b60405180910390fd5b60006111e3611178565b90506000815111611203576040518060200160405280600081525061122e565b8061120d846113d2565b60405160200161121e929190611b09565b6040516020818303038152906040525b915050919050565b505050565b600061125c8473ffffffffffffffffffffffffffffffffffffffff16610acb565b156113c5578373ffffffffffffffffffffffffffffffffffffffff1663150b7a02611285610bb4565b8786866040518563ffffffff1660e01b81526004016112a79493929190611b48565b602060405180830381600087803b1580156112c157600080fd5b505af19250505080156112f257506040513d601f19601f820116820180604052508101906112ef9190611820565b60015b611375573d8060008114611322576040519150601f19603f3d011682016040523d82523d6000602084013e611327565b606091505b5060008151141561136d576040517f08c379a000000000000000000000000000000000000000000000000000000000815260040161136490611bd1565b60405180910390fd5b805181602001fd5b63150b7a0260e01b7bffffffffffffffffffffffffffffffffffffffffffffffffffffffff1916817bffffffffffffffffffffffffffffffffffffffffffffffffffffffff1916149150506113ca565b600190505b949350505050565b6060600082141561141a576040518060400160405280600181526020017f3000000000000000000000000000000000000000000000000000000000000000815250905061157a565b600082905060005b6000821461144c57808061143590611ff9565b915050600a826114459190611e7b565b9150611422565b60008167ffffffffffffffff81111561148e577f4e487b7100000000000000000000000000000000000000000000000000000000600052604160045260246000fd5b6040519080825280601f01601f1916602001820160405280156114c05781602001600182028036833780820191505090505b5090505b60008514611573576001826114d99190611eac565b9150600a856114e89190612042565b60306114f49190611e25565b60f81b818381518110611530577f4e487b7100000000000000000000000000000000000000000000000000000000600052603260045260246000fd5b60200101907effffffffffffffffffffffffffffffffffffffffffffffffffffffffffffff1916908160001a905350600a8561156c9190611e7b565b94506114c4565b8093505050505b919050565b600061159261158d84611db1565b611d8c565b9050828152602081018484840111156115aa57600080fd5b6115b5848285611f54565b509392505050565b6000813590506115cc8161251d565b92915050565b6000813590506115e181612534565b92915050565b6000813590506115f68161254b565b92915050565b60008151905061160b8161254b565b92915050565b600082601f83011261162257600080fd5b813561163284826020860161157f565b91505092915050565b60008135905061164a81612562565b92915050565b60006020828403121561166257600080fd5b6000611670848285016115bd565b91505092915050565b6000806040838503121561168c57600080fd5b600061169a858286016115bd565b92505060206116ab858286016115bd565b9150509250929050565b6000806000606084860312156116ca57600080fd5b60006116d8868287016115bd565b93505060206116e9868287016115bd565b92505060406116fa8682870161163b565b9150509250925092565b6000806000806080858703121561171a57600080fd5b6000611728878288016115bd565b9450506020611739878288016115bd565b935050604061174a8782880161163b565b925050606085013567ffffffffffffffff81111561176757600080fd5b61177387828801611611565b91505092959194509250565b6000806040838503121561179257600080fd5b60006117a0858286016115bd565b92505060206117b1858286016115d2565b9150509250929050565b600080604083850312156117ce57600080fd5b60006117dc858286016115bd565b92505060206117ed8582860161163b565b9150509250929050565b60006020828403121561180957600080fd5b6000611817848285016115e7565b91505092915050565b60006020828403121561183257600080fd5b6000611840848285016115fc565b91505092915050565b60006020828403121561185b57600080fd5b60006118698482850161163b565b91505092915050565b61187b81611ee0565b82525050565b61188a81611ef2565b82525050565b600061189b82611de2565b6118a58185611df8565b93506118b5818560208601611f63565b6118be8161212f565b840191505092915050565b60006118d482611ded565b6118de8185611e09565b93506118ee818560208601611f63565b6118f78161212f565b840191505092915050565b600061190d82611ded565b6119178185611e1a565b9350611927818560208601611f63565b80840191505092915050565b6000611940603283611e09565b915061194b82612140565b604082019050919050565b6000611963602483611e09565b915061196e8261218f565b604082019050919050565b6000611986601983611e09565b9150611991826121de565b602082019050919050565b60006119a9602c83611e09565b91506119b482612207565b604082019050919050565b60006119cc603883611e09565b91506119d782612256565b604082019050919050565b60006119ef602a83611e09565b91506119fa826122a5565b604082019050919050565b6000611a12602983611e09565b9150611a1d826122f4565b604082019050919050565b6000611a35603183611e09565b9150611a4082612343565b604082019050919050565b6000611a58602c83611e09565b9150611a6382612392565b604082019050919050565b6000611a7b602983611e09565b9150611a86826123e1565b604082019050919050565b6000611a9e602f83611e09565b9150611aa982612430565b604082019050919050565b6000611ac1602183611e09565b9150611acc8261247f565b604082019050919050565b6000611ae4603183611e09565b9150611aef826124ce565b604082019050919050565b611b0381611f4a565b82525050565b6000611b158285611902565b9150611b218284611902565b91508190509392505050565b6000602082019050611b426000830184611872565b92915050565b6000608082019050611b5d6000830187611872565b611b6a6020830186611872565b611b776040830185611afa565b8181036060830152611b898184611890565b905095945050505050565b6000602082019050611ba96000830184611881565b92915050565b60006020820190508181036000830152611bc981846118c9565b905092915050565b60006020820190508181036000830152611bea81611933565b9050919050565b60006020820190508181036000830152611c0a81611956565b9050919050565b60006020820190508181036000830152611c2a81611979565b9050919050565b60006020820190508181036000830152611c4a8161199c565b9050919050565b60006020820190508181036000830152611c6a816119bf565b9050919050565b60006020820190508181036000830152611c8a816119e2565b9050919050565b60006020820190508181036000830152611caa81611a05565b9050919050565b60006020820190508181036000830152611cca81611a28565b9050919050565b60006020820190508181036000830152611cea81611a4b565b9050919050565b60006020820190508181036000830152611d0a81611a6e565b9050919050565b60006020820190508181036000830152611d2a81611a91565b9050919050565b60006020820190508181036000830152611d4a81611ab4565b9050919050565b60006020820190508181036000830152611d6a81611ad7565b9050919050565b6000602082019050611d866000830184611afa565b92915050565b6000611d96611da7565b9050611da28282611fc8565b919050565b6000604051905090565b600067ffffffffffffffff821115611dcc57611dcb612100565b5b611dd58261212f565b9050602081019050919050565b600081519050919050565b600081519050919050565b600082825260208201905092915050565b600082825260208201905092915050565b600081905092915050565b6000611e3082611f4a565b9150611e3b83611f4a565b9250827fffffffffffffffffffffffffffffffffffffffffffffffffffffffffffffffff03821115611e7057611e6f612073565b5b828201905092915050565b6000611e8682611f4a565b9150611e9183611f4a565b925082611ea157611ea06120a2565b5b828204905092915050565b6000611eb782611f4a565b9150611ec283611f4a565b925082821015611ed557611ed4612073565b5b828203905092915050565b6000611eeb82611f2a565b9050919050565b60008115159050919050565b60007fffffffff0000000000000000000000000000000000000000000000000000000082169050919050565b600073ffffffffffffffffffffffffffffffffffffffff82169050919050565b6000819050919050565b82818337600083830152505050565b60005b83811015611f81578082015181840152602081019050611f66565b83811115611f90576000848401525b50505050565b60006002820490506001821680611fae57607f821691505b60208210811415611fc257611fc16120d1565b5b50919050565b611fd18261212f565b810181811067ffffffffffffffff82111715611ff057611fef612100565b5b80604052505050565b600061200482611f4a565b91507fffffffffffffffffffffffffffffffffffffffffffffffffffffffffffffffff82141561203757612036612073565b5b600182019050919050565b600061204d82611f4a565b915061205883611f4a565b925082612068576120676120a2565b5b828206905092915050565b7f4e487b7100000000000000000000000000000000000000000000000000000000600052601160045260246000fd5b7f4e487b7100000000000000000000000000000000000000000000000000000000600052601260045260246000fd5b7f4e487b7100000000000000000000000000000000000000000000000000000000600052602260045260246000fd5b7f4e487b7100000000000000000000000000000000000000000000000000000000600052604160045260246000fd5b6000601f19601f8301169050919050565b7f4552433732313a207472616e7366657220746f206e6f6e20455243373231526560008201527f63656976657220696d706c656d656e7465720000000000000000000000000000602082015250565b7f4552433732313a207472616e7366657220746f20746865207a65726f2061646460008201527f7265737300000000000000000000000000000000000000000000000000000000602082015250565b7f4552433732313a20617070726f766520746f2063616c6c657200000000000000600082015250565b7f4552433732313a206f70657261746f7220717565727920666f72206e6f6e657860008201527f697374656e7420746f6b656e0000000000000000000000000000000000000000602082015250565b7f4552433732313a20617070726f76652063616c6c6572206973206e6f74206f7760008201527f6e6572206e6f7220617070726f76656420666f7220616c6c0000000000000000602082015250565b7f4552433732313a2062616c616e636520717565727920666f7220746865207a6560008201527f726f206164647265737300000000000000000000000000000000000000000000602082015250565b7f4552433732313a206f776e657220717565727920666f72206e6f6e657869737460008201527f656e7420746f6b656e0000000000000000000000000000000000000000000000602082015250565b7f45524337323155524953746f726167653a2055524920717565727920666f722060008201527f6e6f6e6578697374656e7420746f6b656e000000000000000000000000000000602082015250565b7f4552433732313a20617070726f76656420717565727920666f72206e6f6e657860008201527f697374656e7420746f6b656e0000000000000000000000000000000000000000602082015250565b7f4552433732313a207472616e73666572206f6620746f6b656e2074686174206960008201527f73206e6f74206f776e0000000000000000000000000000000000000000000000602082015250565b7f4552433732314d657461646174613a2055524920717565727920666f72206e6f60008201527f6e6578697374656e7420746f6b656e0000000000000000000000000000000000602082015250565b7f4552433732313a20617070726f76616c20746f2063757272656e74206f776e6560008201527f7200000000000000000000000000000000000000000000000000000000000000602082015250565b7f4552433732313a207472616e736665722063616c6c6572206973206e6f74206f60008201527f776e6572206e6f7220617070726f766564000000000000000000000000000000602082015250565b61252681611ee0565b811461253157600080fd5b50565b61253d81611ef2565b811461254857600080fd5b50565b61255481611efe565b811461255f57600080fd5b50565b61256b81611f4a565b811461257657600080fd5b5056fea26469706673582212205ef52f4376e3dad432b4148b3a57961accd7a9870531df2635c1fd203002078064736f6c63430008040033a264697066735822122021900e3af36a55eb1ac63655ab8306d9eac17f5833833e7011ff4aba26f057f864736f6c63430008040033",
  "linkReferences": {},
  "deployedLinkReferences": {}
}